:020000040800F2
:10000000E80A0020AD010008C13100080B310008EA
:10001000BD3100089724000841420008000000009C
:10002000000000000000000000000000713800081F
:100030003B2C000800000000EB360008D93900080E
:10004000C7010008C7010008C7010008C701000870
:10005000C7010008C7010008C7010008C701000860
:10006000C7010008C7010008C7010008812900086E
:10007000C7010008C7010008C7010008C701000840
:10008000C7010008C7010008C7010008C701000830
:100090009D3F0008C7010008C7010008C70100080C
:1000A000C7010008C7010008C7010008C701000810
:1000B0003D3A0008553D0008C7010008C701000887
:1000C000C7010008C7010008C7010008C7010008F0
:1000D000C7010008C7010008C7010008C7010008E0
:1000E000C7010008C7010008C7010008C7010008D0
:1000F00000F002F800F04AF80AA090E8000C8244F0
:100100008344AAF10107DA4501D100F03FF8AFF2CC
:10011000090EBAE80F0013F0010F18BFFB1A43F0E5
:10012000010318477C6B00009C6B0000103A24BF51
:1001300078C878C1FAD8520724BF30C830C144BF4C
:1001400004680C607047000000230024002500268E
:10015000103A28BF78C1FBD8520728BF30C148BF2A
:100160000B607047662904F04286642900F086809F
:10017000002070471FB500F007FC0400002000219C
:1001800004F0ECF8E0601FBD10B510BD00F000FDFC
:100190001146FFF7EFFF04F083F800F01EFD03B4F3
:1001A000FFF7F2FF03BC00F061FD00000948804743
:1001B00009480047FEE7FEE7FEE7FEE7FEE7FEE749
:1001C000FEE7FEE7FEE7FEE704480549054A064B61
:1001D00070470000DD390008F1000008E804002045
:1001E000E80A0020E8060020E80600200FB40449D1
:1001F00010B503AA029800F0B5FB10BC5DF814FB23
:10020000340000200FB41CB5074B06AA7B44694696
:100210000090059800F08DFB0020694600F09CFBE3
:100220001CBC5DF814FB00004907000070B50446D3
:1002300085690068C10601D5302600E02026C00788
:1002400007D070BDD4E9012130469047206A401C98
:1002500020626D1EF6D570BD70B5044685690078C4
:10026000C00707D170BDD4E9012120209047206A42
:10027000401C20626D1EF6D570BD00002DE9F041D6
:100280000646002410687529314616A510D0AFF334
:100290000080002802DA404213A507E031688A078F
:1002A00001D512A502E0490704D511A5012401E0FA
:1002B000AFF3008000210A2206F1240709E0B0FB19
:1002C000F2FCB0FBF2F302FB1C003030785418460D
:1002D000491C0028F3D123462A463046BDE8F041A8
:1002E00000F0B9B8000000002D0000002B00000055
:1002F000200000002DE9F0474FF0000A894604462F
:10030000C0F820A02046E1688847002876D025283C
:1003100006D0D4E901219047206A401C2062F1E711
:10032000E168204600258847C4F81CA0064600273F
:10033000C4F818A02A2E09D0304603F097FF38B32E
:1003400004EB8708303EC8F8186019E059F8041B20
:10035000204604EB87029161E1688847012F064639
:1003600018D1E069002820DA25F020051DE0D8F832
:10037000180000EB800006EB40003038C8F8180089
:100380002046E1688847064603F070FF0028EED15A
:10039000012F0AD02E2E08D12046E16888477F1C05
:1003A0000646022F45F02005C4DBA069002803DAC9
:1003B000404245F00105A061E80701D025F0100595
:1003C000B6B1A6F14100192802D8203645F40065DF
:1003D0004A463146204625604D46FFF7C3FE58B1D8
:1003E000012806D0ED1D25F0070000F1080989E776
:1003F00004E005F1040985E730468AE7206ABDE894
:10040000F0874FF0000200B5134694469646203917
:1004100022BFA0E80C50A0E80C50B1F12001BFF4BD
:10042000F7AF090728BFA0E80C5048BF0CC05DF823
:1004300004EB890028BF40F8042B08BF704748BF71
:1004400020F8022B11F0804F18BF00F8012B7047E5
:100450007047704770472DE9F0470D469946924620
:10046000044600F124080168880604D5E06921F0FB
:100470001001216000E00120A84201DD471B00E0DF
:100480000027A1697A1902EB0900081AA0612078F7
:10049000C00602D42046FFF7C9FE002608E0D4E9D2
:1004A00001211AF806009047206A401C761C206241
:1004B0004E45F4DB2078C0060AD52046FFF7B6FE8D
:1004C00006E0D4E9012130209047206A401C2062D8
:1004D000381EA7F10107F4DC07E0D4E9012118F880
:1004E00005009047206A401C2062281EA5F10105E6
:1004F000F3DC2046FFF7B0FE2078000602D502208C
:10050000BDE8F0870120FBE770472DE9FF4F0C465F
:100510001E464FF0FF378BB0D2E90001DDF8608056
:100520000A908A46C1F30A5505B93D46002108469E
:100530004FF00000BAF1000F00F4400005DA00EBC4
:1005400080004FF4400101EA50004FEA9059B9F1A0
:10055000010F00DDB9460A9850EA4A000ED044F671
:100560001050A5F2FF3545432F14B8F1000F1ED0EF
:100570007542291E1EDDC9F100021CE0B8F1010F11
:100580004FF0000001D0302103E0F24305E0215498
:10059000401CB042FBDB30460022002121540B9965
:1005A000C1F80880C1E900200FB0BDE8F08FBD1B85
:1005B0006D1CDEE74A4600DA694206A800F06EFAD2
:1005C00006AB93E8070003AB83E8070050460A999F
:1005D00000F053FB8DE80700A0F500501F38009095
:1005E0000398002D0ADD42F21F014A460844002309
:1005F00003A90390684600F0BCFD09E0A0F5005097
:100600004A461F38002303A90390684600F0C6FD40
:100610008DE807000004000C03D04FF0FF304108C4
:1006200000E01046B8F1000F03D0002200921546FA
:100630001EE0751E05D400F0ABF9303262556D1E18
:10064000F9D5B3460122084302D000227F1C04E002
:100650002078302801D100227F1E002A099784D0FB
:100660001DE0112D07DA00F093F9303262556D1C50
:1006700050EA0102F5D1084302D00098C8B10EE05B
:100680000021681E05E0235C625C63542254401E16
:10069000491C8142F7DBAB46A81B401E0990002095
:1006A00004F80B000B98099AC0F80880C0E9002BE9
:1006B0007AE711264FF0000857E72DE9F04F8846FA
:1006C0000446D21D22F0070191B0D1E90001CDE925
:1006D0000A0103F0B7FD02460B98C00F01D02D2090
:1006E00007E02068810701D52B2002E0202101EAE4
:1006F000C000032A099001D0072A05DB03464146C2
:10070000204600F08BF90BE12078800601D5E069E6
:1007100000E00620B8F1650F814606D0B8F1660FFB
:1007200018D0B8F1670F70D131E00020B9F1110F86
:10073000009001DB112301E009F101030AAA01A9DC
:100740000CA8FFF7E2FEDDE90C70002609F10105B7
:10075000834647E001204B4600904FF000470AAA2D
:1007600001A90CA8FFF7D1FEDDE90DB00C995D469B
:10077000002610B909F101000D18B9EB050003D4EA
:10078000C0F1FF3609F10105A5EB09002BE0B9F135
:10079000010F01DA4FF001090020B9F1110F0090AB
:1007A000484601DD112300E003460AAA01A90CA86E
:1007B000FFF7ABFEDDE90C704D460026834620783E
:1007C00000070AD4AB4500DA5D4601A8012D04DD1F
:1007D000411911F8011C302907D04F4502DA17F1F1
:1007E000040F04DA012082460FE06D1EEEE7002FB1
:1007F00002DCED1B3E4403E0781CA84200DD7D1CBA
:10080000B81B00F1010A4FF000472078000703D41D
:10081000AA4501DB4FF0FF3A0021B7F1004F0DF17F
:1008200043088DF8431024D002202B23002F01DA37
:100830007F422D230A21021EA0F1010000DC5FB1DE
:1008400097FBF1FC97FBF1F201FB1C7C17460CF1C6
:10085000300C08F801CDEEE7A8F101000370218803
:10086000090501D5452100E06521A0F1010800F846
:10087000011C09980FA9A1EB0807FF1D00B1012079
:10088000411901EBEA70A1693844081A401EA061C1
:100890002078C00602D42046FFF7C8FC099828B18A
:1008A000D4E901219047206A401C20622078C006CC
:1008B00022D52046FFF7BAFC1EE0002E04DBB3452C
:1008C00002DD01A8805D00E03020D4E901219047DD
:1008D000206A401C2062761CAAF101005FEA000A2F
:1008E0000AD100F051F8C0680168405CD4E90121E8
:1008F0009047206A401C2062281EA5F10105DCDC1F
:1009000007E0D4E9012118F8010B9047206A401C48
:100910002062381EA7F10107F3DC2046FFF79CFC9C
:10092000032011B041E6000001694A1C0261087809
:10093000704700B58FB0CDE901310021059105491F
:100940007944CDE9031011466846FFF7D3FC0FB098
:1009500000BD0000E5FFFFFF0A6802F8010B0A6016
:1009600070470000074B70B50D467B44FFF7E1FF71
:100970000446284600F004F910B14FF0FF3070BD76
:10098000204670BD0F39000000487047A8040020C1
:1009900030B5B0F10A024FEA900E71F100034EEA51
:1009A000817EB0EB0E0061EB91014FEA101E4EEA22
:1009B000017E10EB0E0041EB11114FEA102E4EEAB2
:1009C000016E10EB0E0041EB11214FEA104E4EEA82
:1009D000014E10EB0E0041EB1141401841F10001B6
:1009E0004FEAD00040EA41704FEAD10110EB800598
:1009F0004FEA810444EA907444EB01046D1944EB1E
:100A00000404521BA3414FF0000348BF0A3200D533
:100A100030BD401C41F1000130BD00002DE9F04126
:100A20001F46044603260168072A01F4006004DB20
:100A300008B116A505E016A503E008B115A500E06C
:100A400015A521F010002060A069C01EA0610FB1A3
:100A5000401EA0612046FFF7E9FB4FB1D4E9012118
:100A600038469047206A401C2062C01C206206E085
:100A7000206AFAE7D4E9012115F8010B9047761EA8
:100A8000F8D22046FFF7E8FBBDE8F0814E414E006A
:100A90006E616E00494E4600696E66002DE9F047B2
:100AA000814616468AB0354878440DC88DE80D0059
:100AB00032487844801C03AC0DC884E80D0041F630
:100AC0009B300844372190FBF1F290FBF1F5A5F142
:100AD000800501FB12041B3C02D56442012000E0AA
:100AE0000020DFF898A080460027FA44AAF1BE0A49
:100AF0000EE0E0070AD03246684607EB47010123C3
:100B00000AEB810100F04AFB8DE8070064107F1CAE
:100B1000002CEED1194F7F44AE3F19E0E80715D005
:100B200007EB04100DF1180A90E80E008AE80E0099
:100B3000C068F04201D1981908903246012306A9F5
:100B400003A800F02BFB03AB83E807006D10641CC7
:100B5000002DE3D14FF0010332466946B8F1000F92
:100B600003A802D000F005FB01E000F017FBC9E983
:100B70000001C9F808200AB0BDE8F087DC61000078
:100B8000007B00F080007047004870478804002018
:100B90007546FFF7F9FFAE4605006946534620F05B
:100BA0000700854618B020B5FFF70EFBBDE82040D2
:100BB0004FF000064FF000074FF000084FF0000B19
:100BC00021F00701AC46ACE8C009ACE8C009ACE8CC
:100BD000C009ACE8C0098D46704710B50446AFF3B4
:100BE00000802046BDE81040FFF7D9BA4FF0013C25
:100BF00050F8042B51F8043B9A4221D1A2EB0C038C
:100C0000934313EACC1317D150F8042B51F8043B4B
:100C10009A4215D1A2EB0C03934313EACC130BD1E8
:100C200050F8042B51F8043B9A4209D1A2EB0C0373
:100C3000934313EACC13DBD04FF00000704700BFA2
:100C4000D01A01BAB1FA81F101F0180122FA01F0CB
:100C5000CB40C1F12001DBB2C0B2C01A2CFA01F3C3
:100C6000D11A914311EAC311E6D170470149182006
:100C7000ABBEFEE72600020070475FEA400C08BFEB
:100C800091F0000F4FEA8C234FEAC12243EA515101
:100C90004FEA1C5018BF00F5F0404FEA300018BF73
:100CA00041F000415FEA6C5C00F02980BCF1FF3F3D
:100CB00008BF40F080407047130C06BF12044FF08D
:100CC000100C4FF0000C130E04BF12020CF1080CB4
:100CD000130F04BF12010CF1040C930F04BF920018
:100CE0000CF1020CD30F04BF52000CF1010C1146A1
:100CF0004FF00002A0F11F00A0EB0C00704711F0B4
:100D0000004F08BF704731F000413FF4D5AF0B0CE6
:100D100006BF09044FF0100C4FF0000C0B0E04BF7F
:100D200009020CF1080C0B0F04BF09010CF1040CB3
:100D30008B0F04BF89000CF1020CCB0F04BF4900DC
:100D40000CF1010CCCF12003A0EB0C0022FA03F310
:100D500002FA0CF241EA030100F10100704720F0B1
:100D60007F4C80EA030023F07F47ACEB070303F5D9
:100D70007C5300F0004003F1FF032DE980494FEA66
:100D8000154B09B44FEA144325EA0B4E24EA0348F5
:100D90000FF2042606EB132749083E785FEA320279
:100DA00003FB0667C7F5000707FB06F64FEA543753
:100DB0004FEAD64606F1020607FB066CCCF1005C52
:100DC0004FEA1C472CEA074C07FB06F40CFB06F520
:100DD00004EB15464FEA961634BF00204FF0004052
:100DE0004FEAD13706FB07FC4FEA1C4C0CFB0BF714
:100DF000D21B03FB0CF761EB07010CFB0EF7B0EB0A
:100E0000074072EB17420CFB08F734BFA2EB074216
:100E1000B2EB074261EB17414FEA0C444FEA9107EE
:100E200006FB07FC4FEA1C4C0CFB0BF7B0EBC74072
:100E300072EB573203FB0CF734BFA2EBC742B2EBA5
:100E4000C74261EB57310CFB0EF7B0EBC70072EBFA
:100E500057720CFB08F734BFA2EBC702B2EBC70214
:100E600061EB5771039F4FEA816141EA921104EBF4
:100E7000CC044FEAD1374FEA826206FB07FC42EA14
:100E800090124FEA80604FEA1C4C0CFB0BF7D21B10
:100E900003FB0CF761EB07010CFB0EF7B0EB07400F
:100EA00072EB17420CFB08F734BFA2EB0742B2EB20
:100EB000074261EB17414FEA8C554FEA910704EB6B
:100EC0009C2406FB07FC4FEA1C4C0CFB0BF7B0EB19
:100ED000C74072EB573203FB0CF734BFA2EBC7429B
:100EE000B2EBC74261EB57310CFB0EF7B0EBC7001A
:100EF00072EB57720CFB08F734BFA2EBC702B2EBE0
:100F0000C70261EB577115EB4C254FEA816141EA4D
:100F100092114FEA82624FEAD13742EA901206FB01
:100F200007FC44F100044FEA80604FEA1C4C0CFBC4
:100F30000BF7D21B03FB0CF761EB07010CFB0EF761
:100F4000B0EB074072EB17420CFB08F734BFA2EB83
:100F50000742B2EB074261EB174115EB1C154FEA54
:100F6000813141EA92414FEA823242EA90424FEAAD
:100F700080304FEA0C7644F1000448EA03434EEA1D
:100F80000B484FF0000EB2EB080C71EB030724BFC7
:100F9000624639464EEB0E0E4FF0000B00185241E0
:100FA00049414BEB0B0BB2EB080C71EB03077BF1E8
:100FB000000B24BF624639464EEB0E0E4FF0000B7D
:100FC0000018524149414BEB0B0BB2EB080C71EB93
:100FD00003077BF1000B24BF624639464EEB0E0E31
:100FE00051EA020718BF46F0010616EB0E7655F1DE
:100FF000000254F1000103D5BDE88901BDE8008875
:10100000BDE88901BDE80048B619524141EB010134
:10101000A3F10103704780807F7E7D7C7B7A7978A5
:10102000777676757473727171706F6E6E6D6C6CAD
:101030006B6A6A696868676666656464636362614F
:101040006160605F5F5E5E5D5D5C5C5B5B5A5A59D0
:10105000595858575756565555555454535352523C
:101060005251515050504F4F4F4E4E4D4D4D4C4C94
:101070004C4B4B4B4A4A4A494949484848474747DD
:10108000474646464545454444444443434343421A
:10109000424242414141002B9C4630D477002BD044
:1010A0001CB54FEA370703B44FF010004FF01001A2
:1010B000BAF1000F06D0BCF1000FDCBF40F0080011
:1010C00040F008014FF000000FBCBDE810400BF1EC
:1010D000010BBBF1010F08BF5FEA170722BF12F136
:1010E000010211F101014FF0004143F1000300F052
:1010F000004043EA00007047F9D35708D0E746EABA
:10110000064613F1400F4FEA16461FDD13F1200F7C
:10111000DFBF16430A46002120335B42BED0C3F135
:10112000200746EA064602FA07F74FEA164646EA5D
:101130000706C3F1200722FA03F201FA07F721FAA2
:1011400003F14FF0000342EA0702A7E746EA02066E
:1011500046EA06464FEA164646EA0106BCBF46EA9C
:101160000646360C4FF000034FF000024FF000012E
:1011700094E72DE9804C9A46934670B491E8380084
:1011800007C831EA400C48BF34EA430C03D5FFF7E7
:10119000E6FDFFF780FFF0BCBDE8008C2DE9804C38
:1011A0009A46934670B491E8380007C810F0804F13
:1011B00008BF13F0804F03D100F005F8FFF76BFF75
:1011C000F0BCBDE8008C20F07F4780EA030023F0EC
:1011D0007F4C07EB0C03A3F57C5300F00040A3F118
:1011E000FE0392F0000F00F0B38095F0000F00F0C6
:1011F00077802DE901494FEA11404FEA144621EA70
:10120000004800FB06FC24EA064708FB06F607FB3D
:1012100008F800FB07F718EB06484CEB164C4FEAB2
:10122000124B18EB07484FEA15464CEB174022EAE1
:101230000B4E0BFB06FC25EA06470EFB06F607FBEA
:101240000EFE0BFB07F71EEB064E4CEB164C4FF059
:1012500000061EEB074E4CEB174B18EB0B0840F14A
:10126000000018EB0E0B58EB000840F100008F1A3D
:101270004FF000013CBFC943661B14BFB5EB040C23
:1012800000213CBFC943F61B4FEA17444EEA8E0EBD
:1012900027EA04454FEA1C4704FB07622CEA074C87
:1012A00005FB07F70CFB05F604FB0CFC16EB0746E9
:1012B00042EB174216EB0C4642EB1C421BEB0606B8
:1012C00058EB0202414146EA9E0601D5BDE801897C
:1012D000B619524141EB0101A3F10103BDE80189B7
:1012E0004FEA14454FEA114724EA054621EA074C24
:1012F00005FB07F406FB07F70CFB06F105FB0CFCEE
:1013000011EB074144EB17444FEA124711EB0C4134
:1013100044EB1C4422EA074C05FB07F206FB07F7E7
:101320000CFB06F605FB0CFC16EB074642EB1742DE
:1013300016EB0C4642EB1C456A1854F1000148BFFD
:101340007047B619524141EB0101A3F10103704707
:1013500095F0000F37D04FEA11424FEA144721EAC7
:10136000024624EA074C02FB07F106FB07F70CFBD9
:1013700006F402FB0CFC14EB074441EB17414FEA67
:10138000154714EB0C4441EB1C4125EA074C02FBCA
:1013900007F506FB07F70CFB06F602FB0CFC16EB49
:1013A000074645EB174516EB0C4645EB1C42121958
:1013B00051F1000148BF7047B619524141EB01019C
:1013C000A3F1010370474FEA14454FEA114724EA9D
:1013D000054621EA074C05FB07F106FB07F70CFB66
:1013E00006F24FF0000605FB0CFC12EB074241EB46
:1013F000174112EB0C4251EB1C4148BF7047921849
:1014000041EB0101A3F10103704721B1826842F071
:101410000102826003E0826822F00102826070476C
:1014200021B1826842F48072826003E0826822F413
:10143000807282607047000010B5044605488442FF
:1014400007D10121401502F08DF90021601502F04D
:1014500089F910BD0024014021B1826842F4801254
:10146000826003E0826822F4801282607047014645
:1014700000208A6802F004020AB1012000E0002086
:101480007047014600208A6802F008020AB1012074
:1014900000E000207047000030B502460020002325
:1014A00050680F4C20400D790C6844EA0524204315
:1014B000506090680B4C2040D1E902542C434D7988
:1014C00044EA450420439060D06A20F470000C7C0C
:1014D000641EE4B2234340EA0350D06230BD0000F2
:1014E000FFFEF0FFFDF7F1FFF0B504460D460020CA
:1014F0000021092D11DDE068A5F10A0606EB46077B
:10150000072606FA07F18843A5F10A0606EB460608
:1015100003FA06F10843E0600CE0206905EB45079B
:10152000072606FA07F1884305EB450603FA06F19C
:1015300008432061072A0FDA606B561E06EB860708
:101540001F2606FA07F18843561E06EB860605FAA3
:1015500006F10843606322E00D2A0FDA206BD61FE4
:1015600006EB86071F2606FA07F18843D61F06EB0F
:10157000860605FA06F10843206310E0E06AA2F14E
:101580000D0606EB86071F2606FA07F18843A2F12F
:101590000D0606EB860605FA06F10843E062F0BD8B
:1015A000816841F008018160704721B1826842F48E
:1015B000A002826003E0826822F4A0028260704789
:1015C000816841F0040181607047000000B587B078
:1015D000142102A8FEF715FF00200190012104202C
:1015E00002F0B0F80121082002F0ACF80121480215
:1015F00002F0A8F84FF4404002F078F8FF20ADF870
:10160000040000208DF8070001A9404801F006FC05
:101610000120ADF8040000208DF8070001A93C4826
:1016200001F0FCFB3B48FFF707FF0020029005900C
:1016300001208DF80C008DF80D004FF4602004900F
:1016400009208DF8180002A93248FFF725FF07236B
:10165000012219462F48FFF747FF072302220621E0
:101660002C48FFF741FF0723032205212948FFF7F4
:101670003BFF0723042211462648FFF735FF0723C7
:10168000052203212348FFF72FFF0723062202210B
:101690002048FFF729FF07231A4601211D48FFF7BD
:1016A00023FF0723082200211A48FFF71DFF072305
:1016B000092208211748FFF717FF01211548FFF7F6
:1016C000CBFE01211348FFF7ABFE01211148FFF7C4
:1016D0009CFE1048FFF764FF00BF0E48FFF7D1FEE5
:1016E0000028FAD10B48FFF76BFF00BF0948FFF74E
:1016F000BEFE0028FAD1074801F071FC06490880B7
:1017000001210448FFF751FF07B000BD0008014068
:10171000000C0140002401401600002010B50648CE
:1017200000F0B0F90549087000F00AF800F0F4F98B
:10173000FFF74CFF10BD0000180300201800002028
:1017400008B5002000904FF4A06001F073FD0B205D
:101750008DF8000000208DF801008DF802000120B6
:101760008DF80300684601F02DFD08BD2DE9FE4F00
:1017700004460025A94600200290002600BF63E031
:1017800004EB4512D4F80011106803F0BDF904EB26
:101790004511486004EB4512916804EB451250680E
:1017A00003F07EFA05D204EB4510406804EB4511C6
:1017B000886004EB4510067F012E03D0022E01D075
:1017C000032E27D104EB4510C06800F57A7004EBB6
:1017D0004511C86004EB451148684FF07E5103F095
:1017E00093F91F49019003F081F880461D4903F0E9
:1017F0007DF8074602F0E0FF82468B4604EB451178
:10180000D1E904733A46594602F0F0FD04EB451263
:10181000C2E9040104EB45104168484602F0F8FFB4
:101820008146029802F0C8FF824604EB4510D0E9D9
:1018300004733A46504602F0D9FDCDE9000102F0AA
:10184000A3FD0290681CC5B2082D99DBC4F8049171
:10185000029802F0B1FF04F5847203C2BDE8FE8F66
:101860000000C8420000204100B589B00020089067
:10187000059006900790019002900390049001213A
:10188000092001F05FFF0121480601F04BFF012113
:101890004FF4EA1001F04EFB4FF40070ADF8200059
:1018A00018208DF8230003208DF8220008A929486C
:1018B00001F0B4FA4FF48070ADF8200048208DF8A4
:1018C000230008A9234801F0A9FA00208DF81A0086
:1018D0008DF81B008DF81C0001208DF81D000020E4
:1018E0008DF81E008DF81F008DF816008DF817007A
:1018F00005208DF8180004208DF819000C20ADF893
:10190000140005A9144800F056FE00208DF80E00C2
:101910008DF80F0001208DF81000104800784FF668
:10192000FF7101EA8020ADF804000020ADF8060048
:101930004FF47C40ADF808000E20ADF80A000020FE
:10194000ADF80C0001208DF8110001A800F0A6FDF3
:1019500009B000BD000C01400064004019000020E7
:1019600010B500F023F8FFF77FFF00F001F810BD7D
:1019700008B5002000904FF4A06001F05BFC14203B
:101980008DF8000001208DF8010000208DF8020084
:1019900001208DF80300684601F014FC01220221A9
:1019A000014800F0FFFD08BD0064004010B50024B0
:1019B00002210F4801F006FB2044C4B24FF48051CD
:1019C0000C4801F0FFFA04EB4000C4B24FF40041B0
:1019D000084801F0F7FA04EB8000C4B2082104487B
:1019E00001F0F0FA04EBC000C4B20348047010BD6B
:1019F000000C014000080140190000202DE9F043CF
:101A000085B006460F4690461D46002414216846C0
:101A1000FEF7F7FC4FF4085000EA461038400090FB
:101A2000002001908DF808008DF809008DF80A500B
:101A300000BF06E018F804100DF10B000155601C02
:101A400084B2AC42F6DB69460D4800F0B6FE814632
:101A5000002401E0601C84B24946094800F040FFC0
:101A6000012803D040F6FF708442F3DB40F6FF709C
:101A7000844203D1012005B0BDE8F0830020FAE7DD
:101A8000006400400246002100BF07E002EB411065
:101A9000007F08B100207047481CC1B20829F5DB5F
:101AA0000120F8E738B5002000900024012104202F
:101AB00001F048FE0121082001F044FE4FF470605F
:101AC000ADF8000010208DF8030003208DF802000F
:101AD00069460E4801F0A2F9F020ADF80000102090
:101AE0008DF8030003208DF802006946084801F0D4
:101AF00095F900BF06E000222146064800F0B4FB3D
:101B0000601CC4B2082CF6DB38BD000000080140A0
:101B1000000C01401803002000B58BB02C21684652
:101B2000FEF76FFC0121084601F0ECFD144800F0BF
:101B3000A1FF144800901448019000200290092051
:101B400003900020049080200590400006908000C3
:101B50000790202008904FF44050099000200A90F0
:101B60006946074801F04BF80121054800F076FF6F
:101B700001220221024801F039F80BB000BD00003B
:101B8000080002404C2401407002002070B500257E
:101B90000024164800F032F800BF0CE01448005D45
:101BA0001449095D884204D01248015D104801556E
:101BB0000125601CC4B2082CF0DB00240EE00C48A8
:101BC0000830005D0C49095D884205D00A48015D76
:101BD0000748083001550125601CC4B2022CEEDB19
:101BE00015B1024800F062F870BD00001803002033
:101BF00028040020026C00080A6C0008014600203E
:101C000000BF06E0284A835C01F588721354421C29
:101C1000D0B20828F6DB002007E0234A0244137CF8
:101C200001F58C721354421CD0B20228F5DB00205F
:101C300008E01D4A024492F8203001F58D721354D9
:101C4000421CD0B20828F4DB002009E0164B03EB5D
:101C50008002136B01F5927242F82030421CD0B220
:101C60000828F3DB002009E00F4B03EB8002136D23
:101C700001F5A27242F82030421CD0B20828F3DBF2
:101C8000002009E0084B03EB8002136F01F5B272EC
:101C900042F82030421CD0B20228F3DB024A926F95
:101CA000C1F86C217047000000E0000810B5A2B038
:101CB0000446802102A8FEF7A4FBD4F8100102908C
:101CC0004FF48A700059039094F8180140F21911EA
:101CD000095D1831884000040690D4F81A010A9072
:101CE0004FF48F7000590B90D4F824010E904FF4EC
:101CF000947000590F904FF49670005910904FF463
:101D00009870005911904FF49A70005912904FF446
:101D10009C70005913904FF49E70005914904FF42A
:101D2000A07000591590D4F8440116904FF4A47097
:101D3000005917904FF4A670005918904FF4A870EE
:101D4000005919904FF4AA7000591A904FF4AC70D2
:101D500000591B904FF4AE7000591C904FF4B070B6
:101D600000591D90D4F864011E904FF4B4700059CE
:101D70001F90D4F86C01209001F040F8254800F045
:101D8000EBFF00F0CDFF05980090224802A90EC994
:101D900000F09CFF099800901E48103006A90EC95B
:101DA00000F094FF0D9800901A4820300AA90EC93F
:101DB00000F08CFF11980090164830300EA90EC923
:101DC00000F084FF159800901248403012A90EC907
:101DD00000F07CFF199800900E48503016A90EC9EB
:101DE00000F074FF1D9800900A4860301AA90EC9CF
:101DF00000F06CFF21980090064870301EA90EC9B3
:101E000000F064FF034800F0D5FF00F0C9FF22B0E6
:101E100010BD000000E000082DE9F04104467249C1
:101E20000988724A1288881A02F022FE8046704998
:101E300002F06AFE07464FF08B4102F057FD06465E
:101E40006C4902F053FD05466B4902F04FFD2060DE
:101E500065494988654A5288881A02F009FE804619
:101E6000634902F051FE07464FF08B4102F03EFD00
:101E70000646604902F03AFD05465F4902F036FD2C
:101E8000206259498988594A9288881A02F0F0FDDF
:101E90008046574902F038FE07464FF08B4102F06A
:101EA00025FD0646534902F021FD0546524902F040
:101EB0001DFD20644C49C9884C4AD288881A02F01A
:101EC000D7FD80464A4902F01FFE07464FF08B417E
:101ED00002F00CFD0646474902F008FD054646495A
:101EE00002F004FD206640490989404A1289881A97
:101EF00002F0BEFD80463E4902F006FE07464FF066
:101F00008B4102F0F3FC06463A4902F0EFFC05462D
:101F1000394902F0EBFCC4F8800033494989334A5F
:101F20005289881A02F0A4FD8046314902F0ECFD86
:101F300007464FF08B4102F0D9FC06462D4902F0CE
:101F4000D5FC05462C4902F0D1FCC4F8A000264976
:101F50008989264A9289881A02F08AFD8046244996
:101F600002F0D2FD07464FF08B4102F0BFFC06465F
:101F7000204902F0BBFC05461F4902F0B7FCC4F83B
:101F8000C0001949C989194AD289881A02F070FD1E
:101F90008046174902F0B8FD07464FF08B4102F02A
:101FA000A5FC0646134902F0A1FC0546124902F0C1
:101FB0009DFCC4F8E0000C49098A0C4A128A881A70
:101FC00002F056FD07460A4902F09EFD06464FF014
:101FD0008B4102F08BFC0546084902F095FDC4F8E0
:101FE0000001BDE8F08100007002002082020020A4
:101FF000333353400000C842A69B443B73732341D4
:1020000008B5002000900121042001F09BFB012174
:10201000082001F097FB04208DF8030003208DF8C1
:1020200002000220ADF8000069460D4800F0F6FEFF
:102030004FF48050ADF8000069460A4800F0EEFE0B
:102040004FF40040ADF800006946064800F0E6FE97
:102050000820ADF800006946014800F0DFFE08BD29
:10206000000C0140000801402DE9F047044600251E
:1020700000260027A846A94600BFEFE004F58D70B2
:10208000405D0020861104F58D70405D0020071131
:1020900004F58D70405D00204FEAA00804F58D70B6
:1020A000405D00F0110926B1012E12D0102E30D162
:1020B0001FE004F5927252F8251004EB45121068E7
:1020C00002F0EEFD04D202222946204600F0CCF8B0
:1020D00020E004F5927252F8251004EB45121068C6
:1020E00002F0DEFD04D204222946204600F0BCF8AE
:1020F00010E004F5927252F8251004EB45121068B6
:1021000002F0CEFD04D204222946204600F0ACF8AD
:1021100000E000BF00BF27B1012F12D0102F30D137
:102120001FE004F5A27252F8251004EB4512506826
:1021300002F0B6FD04D203222946204600F094F8AE
:1021400020E004F5A27252F8251004EB4512506805
:1021500002F0A6FD04D205222946204600F084F8AC
:1021600010E004F5A27252F8251004EB45125068F5
:1021700002F096FD04D205222946204600F074F8AC
:1021800000E000BF00BFB8F1000F06D0B8F1010FAA
:1021900010D0B8F1100F27D119E0D4F86411D4F899
:1021A000000102F07DFC04D201222946204600F005
:1021B0005BF81AE0D4F86411D4F8000102F070FC66
:1021C00004D206222946204600F04EF80DE0D4F84D
:1021D0006411D4F8000102F063FC04D206222946FF
:1021E000204600F041F800E000BF00BFB9F1000F49
:1021F00006D0B9F1010F11D0B9F1100F2AD11BE0AF
:102200004FF4B4721159D4F8000102F049FD04D220
:1022100001222946204600F027F81CE04FF4B47252
:102220001159D4F8000102F03BFD04D207222946DF
:10223000204600F019F80EE04FF4B4721159D4F8AA
:10224000000102F02DFD04D207222946204600F0AD
:102250000BF800E000BF00BF681CC5B2082DFFF6F8
:102260000DAFBDE8F087000070B505460E46144678
:10227000012C03D0022C01D0032C44D1082E40D2D3
:10228000DFE806F0040B131B232A31384FF40061FA
:10229000404800F0A2FE2C7734E04FF480613D48C6
:1022A00000F09BFE3C2044552CE04FF4007139486F
:1022B00000F093FE5C20445524E04FF480713548D3
:1022C00000F08BFE7C2044551CE08021324800F059
:1022D00084FE9C20445515E040212F4800F07DFEEF
:1022E000BC2044550EE020212B4800F076FEDC2077
:1022F000445507E01021284800F06FFEFC204455AB
:1023000000E000BF44E0082E40D2DFE806F0040BF6
:10231000131B232A31384FF400611E4800F05BFE86
:102320002C7734E04FF480611A4800F054FE3C20D2
:1023300044552CE04FF40071164800F04CFE5C2030
:10234000445524E04FF48071124800F044FE7C2094
:1023500044551CE08021104800F03DFE9C2044556F
:1023600015E040210C4800F036FEBC2044550EE03C
:102370002021094800F02FFEDC20445507E0102101
:10238000054800F028FEFC20445500E000BF00BFD7
:1023900070BD000000080140000C01400EB5002097
:1023A0000090019002900121084601F0BBF940F233
:1023B000E730ADF8040041F61F40ADF80000002002
:1023C000ADF80600ADF802008DF8080069464FF040
:1023D000804001F001FD0121880701F0D6FC0122B7
:1023E0001146900701F0EEFC0EBD00000EB5002076
:1023F0000090019002900121022001F093F9092040
:10240000ADF8040041F61F40ADF800000020ADF823
:102410000600ADF802008DF808006946064801F094
:10242000DBFC0121044801F0B0FC01221146024806
:1024300001F0C8FC0EBD00000004004010B500F023
:1024400005F8FFF7ABFFFFF7D1FF10BD08B500207F
:1024500000904FF4A06000F0EDFE1D208DF800000C
:1024600001208DF8010000208DF8020001208DF878
:102470000300684600F0A6FE1C208DF80000002036
:102480008DF801008DF8020001208DF803006846E8
:1024900000F098FE08BD00BFFEE7000010B5002167
:1024A000837A012202FA03F13D4A126842F00102E6
:1024B0003B4B1A603A4A1C3212688A43384B1C3331
:1024C0001A60027BCAB9364A0C3212688A43344B0E
:1024D0000C331A604288C38842EA0343304A4032D0
:1024E000847A42F834300288838842EA03432C4AD3
:1024F0004032847A02EBC4025360027B012A19D174
:10250000274A0C3212680A43254B0C331A60428862
:10251000038842EA0343224A4032847A42F8343044
:10252000C288838842EA03431D4A4032847A02EB20
:10253000C4025360C27A3AB9194A121D12688A431A
:10254000174B1B1D1A6006E0154A121D12680A433C
:10255000134B1B1D1A60028932B9114A14321268DA
:102560008A430F4B14331A600289012A06D10C4AA0
:10257000143212680A430A4B14331A60427B012A50
:1025800006D1074A1C3212680A43054B1C331A60F5
:10259000034A126822F00102014B1A6010BD0000CC
:1025A000006600401AB143690B43436102E043698E
:1025B0008B434361704730B5024600200023146806
:1025C00024F002041460146844F00104146000E074
:1025D0005B1C546804F001041CB94FF6FF74A3425D
:1025E000F6D1546804F001040CB900206CE08C7939
:1025F000012C04D1146844F08004146003E01468D2
:1026000024F080041460CC79012C04D1146844F0C7
:102610004004146003E0146824F0400414600C7A51
:10262000012C04D1146844F02004146003E0146801
:1026300024F0200414604C7A012C04D1146844F076
:102640001004146003E0146824F0100414608C7A01
:10265000012C04D1146844F00804146003E01468E9
:1026600024F008041460CC7A012C04D1146844F0DE
:102670000404146003E0146824F0040414608C78EB
:10268000A407CD7844EA05640D7944EA05444D7900
:1026900044EA05540D886D1E2C43D461146824F05F
:1026A00001041460002300E05B1C546804F0010482
:1026B0001CB14FF6FF74A342F6D1546804F0010434
:1026C0000CB1002000E0012030BD10B500F5D8733A
:1026D00003EB01131B6803F004031372137A53B95D
:1026E00000F5D87303EB01131B6840F2FF7404EA92
:1026F0005353136009E000F5D87303EB01131B6813
:102700006FF0604404EAD303536000F5D87303EB21
:1027100001131B6803F00203537200F5D87303EB37
:1027200001135B6803F00F03937200F5D87303EB9A
:1027300001135B681B0AD37400F5D87303EB011314
:102740009B68D37200F5D87303EB01139B681C0AD6
:10275000147300F5D87303EB01139B681C0C5473BE
:1027600000F5D87303EB01139B681B0E937300F500
:10277000D87303EB0113DB68D37300F5D87303EB55
:102780000113DB681C0A147400F5D87303EB011302
:10279000DB681C0C547400F5D87303EB0113DB6881
:1027A0001B0E937421B9C36843F02003C36003E098
:1027B000036943F02003036110BD10B502460020F9
:1027C000936803F08063B3F1806F00D110E09368E9
:1027D00003F00063B3F1006F01D1012008E09368BA
:1027E00003F08053B3F1805F01D1022000E00420A8
:1027F000042874D002F5C07303EB00131B6803F0C8
:10280000010402F5C07303EB00131C600B7A7BB963
:102810004B7A0C8843EA445302F5C07404EB00146D
:102820002468234302F5C07404EB0014236010E015
:102830000B7A4C6843EAC4034C7A234302F5C07414
:1028400004EB00142468234302F5C07404EB001465
:1028500023608B7A03F00F038B7202F5C07303EBD6
:1028600000135B6823F00F0402F5C07303EB001341
:102870005C6002F5C07303EB00135B688C7A234342
:1028800002F5C07404EB001463608B7B1C064B7B69
:1028900044EA03440B7B44EA0323CC7A234302F546
:1028A000C07404EB0014A3608B7C1C064B7C44EAD0
:1028B00003440B7C44EA0323CC7B234302F5C0741E
:1028C00004EB0014E36002F5C07303EB00131B6814
:1028D00043F0010402F5C07303EB00131C6010BD4C
:1028E00010B50246002321B1012907D002290FD1DA
:1028F00009E090681D4C00EA04030BE090681C4C52
:1029000000EA040306E090681A4C00EA040301E0C0
:10291000002300BF00BF184C181BA34216D007DCD1
:1029200083B16FF08060184470B1022818D111E0B3
:10293000B0F5007F10D0114C204448B1B0F5003FF5
:102940000ED10BE002230DE000230BE0002309E091
:10295000002307E0012305E0012303E0012301E058
:10296000002300BF00BFD8B210BD00000300000468
:102970000003000800000310000100080001FFF739
:1029800010B5022000F01CF900284BD0012000F007
:1029900057F825480068642825D22448007810B3E9
:1029A00000202349087014E022482149097850F892
:1029B000210021491E4A127831F8121008441D499D
:1029C0001B4A127841F8220019480078401C184927
:1029D0000870174800780928E6DB13480068401C97
:1029E000114908601EE01048006864281AD10020D0
:1029F0000F49087012E00F480D49097850F821007E
:102A00006421B0FBF1F081B20C48094A127820F839
:102A1000121007480078401C0549087004480078E7
:102A20000928E8DB10BD00002C0000201800002061
:102A300030000020F00200207002002082020020FE
:102A400000F0805111B10349086001E0024948607B
:102A500070470000040402400000024021B10268F7
:102A600042F00102026004E002684FF6FE731A4071
:102A70000260704701684FF6FE721140016000214C
:102A8000016041608160C1604B49884208D14A4978
:102A90000839496841F00F01474A083A51608AE015
:102AA00045491431884208D143490839496841F001
:102AB000F001414A083A51607DE03F49283188429F
:102AC00008D13D490839496841F470613A4A083AE9
:102AD000516070E038493C31884208D136490839A4
:102AE000496841F47041344A083A516063E0324920
:102AF0005031884208D130490839496841F4702181
:102B00002D4A083A516056E02B496431884208D179
:102B100029490839496841F47001274A083A516047
:102B200049E025497831884208D123490839496864
:102B300041F07061204A083A51603CE01F498842E8
:102B400006D1011F096841F00F01021F116032E038
:102B50001A491431884208D11849091F096841F0FF
:102B6000F001164A121F116025E0144928318842ED
:102B700008D11249091F096841F470610F4A121FF8
:102B8000116018E00D493C31884208D10B49091FFA
:102B9000096841F47041094A121F11600BE00749AE
:102BA0005031884207D10549091F096841F4702155
:102BB000024A121F116070470800024008040240D8
:102BC00001460020002201F0805313B1054B1A6822
:102BD00001E0054B1A6802EA01030BB1012000E095
:102BE0000020704700040240000002401AB1036850
:102BF0000B43036002E003688B430360704710B52A
:102C00000022026847F6F0739A430C6A8B682343EC
:102C10000C6923434C6923438C692343CC692343C8
:102C20004C6A23438C6A23431A430260CB68436097
:102C30000B6883604B68C36010BD704710B56FF0C0
:102C4000040000F0B5FE0A4800680A49B0FBF1F044
:102C5000094908700846007800EB4001C1EBC0103C
:102C60004FF6FF7101EAC0000449088010BD000062
:102C70000000002000127A00380000203A000020F6
:102C80000146114A12884A434FF0E0235A6100225C
:102C90009A611A46126942F001021A6100BF4FF0B0
:102CA000E022106900F001021AB100F48032002A1B
:102CB000F5D04FF0E022126922F001024FF0E0233C
:102CC0001A6100229A6170473A00002070B5049C96
:102CD000B0F1006F1ED3104DA8421BD20F4D2D69CD
:102CE00045F480350D4E3561016042608360C460FB
:102CF00035462D6945F48025356100BF074DED68E7
:102D000005F00105002DF9D1044D2D6925F480351C
:102D1000024E356170BD0000000001080020024035
:102D20000C48006940F480300A490861084600698F
:102D300040F40020086100BF0648C06800F00100B0
:102D40000028F9D10348006920F480300149086166
:102D50007047000000200240B0F1006F1BD30E4905
:102D6000884218D20D49096941F400310B4A1161BA
:102D700011464861096941F04001116100BF0749EE
:102D8000C96801F001010029F9D10449096921F458
:102D90000031024A11617047000001080020024022
:102DA0000348006940F08000014908617047000055
:102DB00000200240B0F1006F1BD30E49884218D2A8
:102DC0000D49096941F480310B4A1161114648618E
:102DD000096941F04001116100BF0749C96801F06C
:102DE00001010029F9D10449096921F48031024A1D
:102DF00011617047000001080020024004480549A5
:102E00004860054848600248486203484862704785
:102E10002301674500200240AB89EFCD2DE9F04149
:102E2000024600250026002000230024002791F8F8
:102E300003C00CF00F0591F803C00CF0100CBCF1AE
:102E4000000F03D091F802C04CEA050591F800C0CC
:102E5000BCF1000F31D0146800202BE04FF0010CC2
:102E60000CFA00F3B1F800C00CEA03069E4220D130
:102E700083004FF00F0C0CFA03F7BC4305FA03FC78
:102E80004CEA040491F803C0BCF1280F06D14FF0BE
:102E9000010C0CFA00FCC2F814C00AE091F803C05F
:102EA000BCF1480F05D14FF0010C0CFA00FCC2F840
:102EB00010C0401C0828D1D31460B1F800C0BCF188
:102EC000FF0F34DD546800202EE000F1080C4FF0B5
:102ED000010808FA0CF3B1F800C00CEA03069E42A0
:102EE00021D183004FF00F0C0CFA03F7BC4305FA15
:102EF00003FC4CEA040491F803C0BCF1280F05D18F
:102F000000F1080C08FA0CF8C2F8148091F803C01C
:102F1000BCF1480F07D100F1080C4FF0010808FA86
:102F20000CF8C2F81080401C0828CED35460BDE8CD
:102F3000F0810000F0B50A4600230024002100259E
:102F400000F00046B6F1004F02D11D4EF16901E0DC
:102F50001B4E7168C0F3034583B200F44016B6F50A
:102F6000401F08D121F07061154E766826F070661A
:102F7000134F7E6012E000F48016B6F5801F06D174
:102F8000032606FA05F4A14341F0706106E0460D00
:102F9000360103FA06F6B14341F0706122B1460DE5
:102FA000360103FA06F6314300F00046B6F1004F51
:102FB00002D1034EF16101E0014E7160F0BD0000ED
:102FC000000001400246002093680B400BB1012035
:102FD00000E000207047416170470161704710B503
:102FE00088B00346002007901CE01846FEF7D8FA88
:102FF00000BF1846FEF745FA0028FAD11846FEF73A
:10300000DFFA00BF1846FEF732FA0028FAD1D86C72
:1030100001A99DF81C2021F812009DF81C00401CFD
:10302000C0B207909DF81C000A28DEDB0020079044
:1030300035E00020069029E001A89DF8181030F82E
:10304000111001AA9DF81800401C32F810008142AE
:1030500017DD01A89DF8181030F81100009001A9A3
:103060009DF81800401C31F810009DF8182021F838
:103070001200BDF8001001AA9DF81800401C22F8AB
:1030800010109DF81800401CC0B206909DF8180062
:103090000928D1DB9DF81C00401CC0B207909DF8A8
:1030A0001C000A28C5DB0020009007900FE001A952
:1030B0009DF81C00801C31F81000BDF80010084479
:1030C00080B200909DF81C00401CC0B207909DF893
:1030D0001C000628EBDBBDF80000062190FBF1F098
:1030E000BDF80010062291FBF2F402FB141103223A
:1030F00091FBF2F1084480B20090BDF8000000B2EC
:10310000C0F5006000B208B010BD00BFFEE70000CF
:1031100010B54FF480410C48FFF75FFF4FF40051AA
:103120000948FFF75AFF00F041F84FF48041064884
:10313000FFF751FF00F03AF84FF400510248FFF753
:103140004AFF00F033F810BD000C014010B54FF4F9
:1031500080410848FFF73FFF4FF400510548FFF753
:103160003CFF00F023F84FF480410248FFF735FFA1
:1031700010BD0000000C014010B54FF480410A481A
:10318000FFF72BFF00F012F84FF400510648FFF74D
:1031900024FF00F00BF84FF400510348FFF71BFF2A
:1031A00000F004F810BD0000000C01400A2000BF30
:1031B000011EA0F10102D0B2FAD1704700BFFEE7B4
:1031C0007047000070B5002100230F22C47804B3BB
:1031D000154C246804F4E064C4F5E064210AC1F1EC
:1031E0000403CA40447804FA03F18478144021436C
:1031F00009010E4C0678A155047804F01F0501243E
:10320000AC4005786D11AD0005F1E025C5F8004131
:1032100009E0047804F01F050124AC40044D067851
:10322000761145F8264070BD0CED00E000E400E0AA
:1032300080E100E002490143024A1160704700004A
:103240000000FA050CED00E070B500240CE000254C
:1032500006E00020074901EB85010855681CC5B24E
:10326000782DF6DB601CC4B2042CF0DB00F026F9EC
:1032700070BD00005000002010B504461CB90021AC
:10328000A62000F016FA012C03D10021A72000F09F
:1032900010FA10BD10B5044694B9082013490870FF
:1032A0000021D32000F005FA0021122000F001FADD
:1032B0000021C82000F0FDF90021A02000F0F9F95C
:1032C000012C12D10020094908700021D32000F000
:1032D000F0F900212E2000F0ECF90021C02000F0D0
:1032E000E8F90021A12000F0E4F910BD140000204D
:1032F000F0B514460B46CF1701EB5777C7F3C7025B
:10330000CF1701EB5777FF10A1EBC707FEB20123E0
:10331000B340DDB24CB1134B03EB80039B5C2B43FA
:10332000104F07EB8007BB541AE00E4B03EB8003F2
:103330009B5CDB430B4F07EB8007BB54094B03EB54
:1033400080039B5C2B43074F07EB8007BB54054B67
:1033500003EB80039B5CDB43024F07EB8007BB540E
:10336000F0BD00005000002008B5002000900121B1
:10337000082000F0E7F94FF46040ADF8000010209D
:103380008DF8030003208DF8020069464A48FFF7D4
:1033900045FD4FF400514848FFF71DFE4FF48041B2
:1033A0004548FFF718FE4FF400414348FFF713FE6E
:1033B0004FF400414048FFF70EFEC820FFF760FCC5
:1033C0004FF400413C48FFF708FE0021AE2000F01A
:1033D00070F90021A82000F06CF900211B2000F0FA
:1033E00068F90021AD2000F064F90021402000F0D0
:1033F00060F90021D32000F05CF90021122000F0D8
:1034000058F90021A02000F054F90021C82000F054
:1034100050F90021A62000F04CF90021402000F0D6
:1034200048F90021A42000F044F90021812000F097
:1034300040F90021302000F03CF90021D92000F0B3
:1034400038F90021222000F034F90021D52000F0C5
:1034500030F90021412000F02CF90021DA2000F0A1
:1034600028F90021102000F024F90021202000F08C
:1034700020F90021022000F01CF90021DB2000F0DF
:1034800018F90021302000F014F900218D2000F0FF
:1034900010F90021522000F00CF90021082000F062
:1034A00008F90021102000F004F9FFF7CDFE0021FB
:1034B000AF2000F0FEF808BD000C014070B50024FC
:1034C0002CE004F1B001C8B2002100F0F2F8154977
:1034D0000878002100F0EDF80021102000F0E9F854
:1034E000FFF716FE782000F0C5F9FFF745FE4020F3
:1034F00000F0C0F9FFF740FE002509E00A4901EBA2
:103500008501085D00F0B6F9FFF736FE681CC5B20C
:10351000782DF3DBFFF71AFE601CC4B2042CD0DB5D
:1035200070BD000014000020500000202DE9FE4F67
:103530000746884692461C460197CDF80080082C25
:1035400002D14FF006091FE02046E31704EB537346
:10355000DB1021464FEAE47C04EB5C7C4FEAEC0C88
:10356000A4EBCC0CBCF1000F02D04FF0010C01E039
:103570004FF0000C6344224604EBD27C4FEA6C0C03
:1035800003FB0CF303F0FF09AAF12000C6B20025EB
:103590005EE0082C07D106EB46002F4901EB400006
:1035A00010F805B01DE00C2C07D106EB46002B49A6
:1035B00001EB800010F805B013E0102C05D128486D
:1035C00000EB061010F805B00BE0182C07D106EB45
:1035D000C600244901EB800010F805B001E0BDE809
:1035E000FE8F002002901CE00BF0010028B1414644
:1035F00038460C9AFFF77CFE09E00C9808B90120C8
:1036000000E00020024641463846FFF771FE4FEACF
:103610006B0B08F1010000F0FF080298401CC0B2DB
:10362000029002980828DFDB781CC7B2082C0BD068
:1036300004EBD4714A100199791A8A4204D1019F8E
:1036400000980830C0B20090DDF80080681CC5B258
:103650004D459EDB00BFC2E7F24D00081A5000083E
:103660008E5400087E5A00082DE9F84106460F46A0
:1036700014461D46DDF81C8013E0CDF8008022784A
:103680002B4639463046FFF751FF082D02D1B01DB9
:10369000C6B205E0284605EBD07106EB6101CEB25B
:1036A000641C2078202802DB20787E28E5DDBDE838
:1036B000F88170B505460C46FFF72AFD782000F02A
:1036C000D9F8FFF759FD1CB1402000F0D3F802E013
:1036D000002000F0CFF8FFF74FFD284600F0CAF8B1
:1036E000FFF74AFDFFF732FD70BD7047014600202D
:1036F000034A506820F4404008435060704700007F
:103700000010024029B1064A52690243044B5A6133
:1037100004E0034A52698243014B5A61704700003A
:103720000010024029B1064AD2690243044BDA6113
:1037300004E0034AD2698243014BDA61704700001A
:103740000010024029B1064A92690243044B9A6173
:1037500004E0034A92698243014B9A61704700007A
:103760000010024029B1064AD2680243044BDA60D5
:1037700004E0034AD2688243014BDA6070470000DC
:103780000010024030B50021002200240023324DF9
:103790006D6805F00C0121B1042905D008292CD150
:1037A00005E02E4D05602BE02C4D056028E02A4DEC
:1037B0006D6805F47012284D6D6805F4803402259B
:1037C00005EB924264B9264D2D6805F010051DB138
:1037D000224D554305600FE0224D554305600BE037
:1037E0001D4D6D6805F400351DB11E4D5543056036
:1037F00002E01A4D5543056002E0184D056000BF18
:1038000000BF154D6D6805F0F0010909164D6B5CA0
:103810000568DD404560104D6D6805F4E061090AFA
:10382000114D6B5C4568DD4085600B4D6D6805F49E
:103830006051C90A0C4D6B5C4568DD40C560064DA2
:103840006D6805F44041890B084D6B5CC568B5FB9C
:10385000F3F5056130BD00000010024000127A004F
:103860000038024000093D003C0000204C000020D0
:103870007047000070B5044600251FE004F080008A
:1038800028B14FF480410F48FFF7A7FB04E04FF445
:1038900080410C48FFF79FFBFFF788FC4FF4005175
:1038A0000848FFF79AFBFFF781FC4FF400510548E9
:1038B000FFF791FB6006040E681CC5B2082DDDDB26
:1038C00070BD0000000C014010B500F001F810BD03
:1038D0000CB50020019000903348006840F480301F
:1038E0003149086000BF3048006800F400300090A3
:1038F0000198401C0190009818B90198B0F5A06F8C
:10390000F1D12948006800F4003010B10120009086
:1039100001E0002000900098012843D1234800686E
:1039200040F01000214908600846006820F00300BC
:1039300008600846006840F0020008601A484068C5
:10394000194948600846406848600846406840F4A5
:10395000806048600846406820F47C104860084653
:10396000406840F4E81048600846006840F0807005
:10397000086000BF0C48006800F000700028F9D013
:103980000948406820F0030007494860084640683D
:1039900040F00200486000BF0348406800F00C009F
:1039A0000828F9D10CBD00000010024000200240A0
:1039B000042808D14FF0E021096941F004014FF0DB
:1039C000E022116107E04FF0E021096921F00401D4
:1039D0004FF0E022116170477047000010B51348A6
:1039E000006840F00100114908600846406810492D
:1039F00008400E494860084600680E4908400B49D7
:103A000008600846006820F4802008600846406886
:103A100020F4FE0048604FF41F008860FFF754FF59
:103A20004FF000600449086010BD00000010024023
:103A30000000FFF8FFFFF6FE08ED00E07CB5012175
:103A4000880700F0AEF9002874D00121880700F043
:103A500099F96B48007806286DD2DFE800F0031C66
:103A600035506D7C6749086800F0A6FECDE900017D
:103A70006548028865A16B48FCF7C4FB6149086A88
:103A800000F09AFECDE900015F48428866A16C48CB
:103A9000FCF7B8FB6FE05B49086C00F08DFECDE9E8
:103AA00000015948828867A15E48FCF7ABFB554985
:103AB000086E00F081FECDE900015348C28867A17D
:103AC0005F48FCF79FFB56E04E49D1F8800000F0BC
:103AD00073FECDE900014C48028966A15148FCF70C
:103AE00091FB4849D1F8A00000F066FECDE9000145
:103AF0004548428965A15248FCF784FB3BE04149B7
:103B0000D1F8C00000F058FECDE900013E4882899E
:103B100064A14448FCF776FB3A49D1F8E00000F094
:103B20004BFECDE900013848C28964A14448FCF746
:103B300069FB20E063E01DE066484388028866A1D7
:103B40003848FCF75FFB6348C388828868A13C481B
:103B5000FCF758FB0FE05F48438902896AA13148AE
:103B6000FCF750FB5B48C38982896DA13448FCF7A0
:103B700049FB00E000BF00BF2249D1F8000100F07E
:103B80001BFECDE900015348038A1F48028A6AA13F
:103B90006E48FCF737FB6E480068401C6C490860B3
:103BA000084600681421B0FBF1F201FB120060B975
:103BB00013480078401C1249087008460078052810
:103BC00003DD002008706249086001200823154ABF
:103BD000002100900846FFF747FD01200823184AFE
:103BE000194600900020FFF73FFD01200823574AA7
:103BF000102100900020FFF737FDFFF75FFC7CBD30
:103C00001C00002018030020700200204348313AB5
:103C100025346420665F4348313A252E32662020E1
:103C200000000000940200204348323A253464200A
:103C3000665F4348323A252E32662020000000009D
:103C4000B20200204348333A25346420665F43487B
:103C5000333A252E32662020000000004348343AD3
:103C600025346420665F4348343A252E326620208E
:103C7000000000004348353A25346420665F43481D
:103C8000353A252E32662020000000004348363A9F
:103C900025346420665F4348363A252E326620205C
:103CA000000000004348373A25346420665F4348EB
:103CB000373A252E32662020000000004348383A6B
:103CC00025346420665F4348383A252E326620202A
:103CD00000000000820200204F313A253464204F5A
:103CE000323A2534642020202020202000000000CB
:103CF0004F333A253464204F343A25346420202051
:103D000020202020000000004F353A253464204F49
:103D1000363A253464202020202020200000000096
:103D20004F373A253464204F383A25346420202018
:103D30002020202000000000566F6C3A25346420BB
:103D4000253264202025322E32660000D002002069
:103D50002000002010B50121084800F022F860B1D1
:103D60000121064800F00EF80548FEF755F8044812
:103D7000FDF7FCFC0248FEF777F910BD0004004097
:103D800018030020CA430282704721B1028842F022
:103D90000102028004E002884FF6FE731A4002809E
:103DA000704730B50246002000230024158A05EA3A
:103DB0000103958905EA010413B10CB1012000E06B
:103DC000002030BD1AB183890B43838102E08389CF
:103DD0008B4383817047000000220288114B984278
:103DE00008D0B0F1804F05D00F4B984202D00F4B56
:103DF000984204D14FF68F731A404B881A434FF6FE
:103E0000FF431A40CB881A4302808B8883850B8836
:103E10000385044B984201D10B7A038601238382E8
:103E200070470000002C01400004004000080040E2
:103E300021B1828942F40052828104E082894DF6E8
:103E4000FF731A40828170470246002013880B409E
:103E50000BB1012000E00020704700002DE9F04781
:103E600086B005460E460024A24600BFA1460027A4
:103E70002F462C8A4CF6FF700440F08804432C82B5
:103E8000AC894EF6F3100440B0883189084371893B
:103E900008430443AC81AC8A4FF6FF400440B0892C
:103EA0000443AC8201A8FFF76DFC1F48874202D192
:103EB000DDF810A001E0DDF80CA0A88900F40040B6
:103EC00040B10AEBCA0000EB0A1031684900B0FBB0
:103ED000F1F807E00AEBCA0000EB0A10316889002C
:103EE000B0FBF1F86420B8FBF0F004012009642174
:103EF00001FB1089A88900F4004040B1322000EB9A
:103F0000C900B0FBF1F000F00700044308E03220E4
:103F100000EB09106421B0FBF1F000F00F00044346
:103F20002C8106B0BDE8F0870038014010B586B09E
:103F3000044601218804FFF7F5FB01210820FFF763
:103F400001FC4FF48060ADF8140003208DF81600DA
:103F500018208DF8170005A90C48FEF75FFF0194A3
:103F60000020ADF80800ADF80A00ADF80C00ADF87F
:103F700010000820ADF80E0001A90548FFF76EFFFC
:103F800001210348FFF754FF06B010BD000C0140AB
:103F900000480040C1F308028280704770B586B0C7
:103FA000002400250026142101A8FCF72AFA01AA02
:103FB00000219E48FEF789FB9DF80C00002878D16F
:103FC0009DF80D000028FAD1019800F01F05152D6D
:103FD00070D2DFE805F00B174048515A7079828B98
:103FE00098A6B5C3D1DAE3F1FBEEED00002406E0BC
:103FF000002221468E48FEF737F9601CC4B2082C17
:10400000F6DB02E1002423E00DF10F00005D08283B
:1040100015D2DFE800F00406080A0C0E1012002684
:104020000EE001260CE002260AE0032608E0042642
:1040300006E0052604E0062602E0072600E000BFB1
:1040400000BF324621467A48FEF70EF9601CC4B222
:10405000082CD9DBD9E00823764A2946764800782F
:10406000FDF7CCFCD1E00223724A0832294672489F
:104070000078FDF7C3FCC8E008236E4A0A322946DF
:104080006D480078FDF7BAFCBFE0002407E06848FF
:1040900000EB4410007F69490855601CC4B2082C2D
:1040A000F5DB0823654A294663480078FDF7A6FC3E
:1040B000ABE0B8E0A8E004235E4A103A29465E4827
:1040C0000078FDF79BFCA0E004235A4A0C3A2946ED
:1040D00059480078FDF792FC97E00823554A083AC2
:1040E000294655480078FDF789FC8EE09DF80F00C1
:1040F000401E4F4901EB4012042329464E480078E8
:10410000FDF77CFC81E09DF80F00401E484901EB63
:104110004010021D0423294647480078FDF76EFC35
:1041200073E09DF80F00401E414901EB401000F183
:1041300010020823294640480078FDF75FFC64E040
:104140009DF80F00401E3B49143101EB800204230F
:10415000294639480078FDF751FC56E09DF80F00DC
:10416000401E3449343101EB800204232946324891
:104170000078FDF743FC48E008232E4A54322946D4
:104180002D480078FDF73AFC3FE00423294A5C32D1
:10419000294629480078FDF731FC36E0DDF80F208C
:1041A0009DF81300401E2349343141F820202CE0B3
:1041B0001DE016E00AE0FFE7DDF80F209DF8130090
:1041C000401E1C49143141F820201EE0DDF80F008C
:1041D0001749C1F86401DDF813101548C0F86811DB
:1041E00013E0DDF80F001249C1F86C010DE0002466
:1041F00007E00DF10F00015D0E480A300155601C0B
:10420000C4B2082CF5DB00E000BF00BF102D07D0C2
:10421000112D05D0122D03D0132D01D0142D02D154
:104220000348FDF743FD06B070BD00000064004088
:10423000180300202804002019000020240000207A
:1042400000BFFEE7490050EAC12018BF04204A0D14
:1042500018BF40F0010040F2FF72B2EB515F08BF9F
:1042600040F00200012808BF0520704730380A28B6
:1042700001D20120704700207047000070B504464D
:104280000D4600BF40210548FFF7DEFD0028F9D0AC
:10429000E1B20248FFF77EFE204670BD00480040B4
:1042A00008B54FF4A060FEF7C5FFFEF7C7FC4FF45A
:1042B000E130FFF73BFE1B4801681BA0FBF796FFB0
:1042C0001DA0FBF793FF4FF47A70FEF7D9FCFFF7C0
:1042D0004BF80020FEF7D0FF0120FEF7DBFFFEF7D2
:1042E000B3FF0120182319A2002100900846FFF710
:1042F000BBF9FFF7E3F8FDF749FCFDF7D3FBFDF74A
:104300007FFEFDF70BFAFDF72BFBFEF797F8FEF7A4
:104310009BFF4FF47A70FEF7B3FC02E0FA20FEF741
:10432000AFFCFBE70000002053797374656D436CAC
:104330006B3A25640D0A00004750494F20546F67BF
:10434000676C6520544553540D0A00004F4C45449A
:10435000204C6F6164696E670000000010B5002991
:104360000AD00878002807D005487844FCF73EFCBE
:10437000002801D0002010BD0248784410BD000084
:10438000562900004E29000021F00042A2F160529F
:10439000B2F5801F01F0004328BFD2F17F6C0BD92A
:1043A0005FEA001C43EAC20242EB507018BF70473C
:1043B00028BF20F001007047B2F5801FBCBF18462F
:1043C00070474FEA410C1CF5001F02D2084600F06E
:1043D00062BC70B500F0B2F800000089FFF7F6BFCC
:1043E0004FF00040A0F580007047000010B591EA42
:1043F000030F48BF83F0004300F1FC80841A71EB87
:10440000030C05D2121943EB0C03001B61EB0C01EA
:10441000DFF824E14FEA1154A4EB135C1EEA430FCA
:1044200018BF9EEA445F73D023EA0E03DCF1200E2E
:1044300021EA045143F4801332D322FA0CFE10EB2C
:104440000E0023FA0CFE41EB0E01CCF1200E03FA14
:104450000EFE10EB0E0051F10001B1F5801FCCF102
:10446000200E32D201EB045112FA0EF2BDE81040D8
:1044700058BF7047401C38BF5FEA420218BF704700
:10448000002814BF20F0010041F100014FEA410370
:1044900013F5001F38BF7047A1F1C04100F09CB870
:1044A000012A43EB0302ACF1200CDCF11F0E32BFFA
:1044B0004FF0000E23FA0CF310EB030041EB045114
:1044C000B4EB115FD0D0A1EB045101F58011490884
:1044D0005FEA300001EB04510ED350F1000038BF09
:1044E00012FA0EFE08D1BDE81040C9E7401C38BFE3
:1044F0005FEA4202CAD1C3E7BDE810404FEA410378
:1045000013F5001F38BF7047A1F1C04100F064B837
:104510009EEA445F08D011EA5E0FBDE8104004BF78
:1045200001F0004100207047BDE8104070B500F078
:1045300005F800BF64FBBE3E0000E0FF0EF1020E76
:104540002EF0030E5EF8046B364205D4012A43EBCD
:10455000030515F5001F12D8012841EB010C1CF5CD
:10456000001F0CD80ED14FEAD17C15F5001F0CEBC3
:104570004C0C0CF1020C08BF4CEBD37C04E04FF068
:10458000080C01E04FEAD37C0CEB4C0526FA05F64B
:1045900006F00706B6F1040C06D20EEB860CBDE859
:1045A00070404CF0010C6047DFE80CF0090B020290
:1045B0004FF000414FF00000A1F5002170BD1946F9
:1045C0001046012851EB010418BFD4F5001484BF34
:1045D000002001F0004170BD0808A0F500114FEA6D
:1045E0003101704710B591EA030F48BF83F00043D3
:1045F0003FF504AF841A71EB030C07D212198CF04B
:10460000004C43EB0C03001B61EB0C01DFF8A4E151
:104610004FEA1154A4EB135C1EEA430F18BF9EEA45
:10462000445F00F0B08023EA6E03524221EA045155
:10463000C3EB6E0338BF5B1EDCF1200E25D322FADC
:104640000CFE10EB0E0043FA0CFE41EB0E01CCF118
:10465000200E03FA0EFE10EB0E0051F10001CCF11A
:10466000200E29D412FA0EF201EB0451BDE81040DD
:1046700058BF7047401C1CBFB2F1004F7047002864
:104680000CBF491C20F00100704712EB020E43EBF7
:10469000030218BF4FF0010E4EEA4202ACF1200CAB
:1046A000DCF11E0E54D943FA0CFE10EB0E0051F152
:1046B000FF31CCF11E0ED5D50EF1010E12FA0EFE11
:1046C000404141EB010101EB445C5FEA5C5C10D9C5
:1046D00010EBDE7001EB045138BFBEF1004FBDE8B6
:1046E000104018BF704700280CBF491C20F0010083
:1046F000704730D24FEAD42C11F5001124F4006435
:104700001BD0B1FA81F20B3AA41AA41ED2F12003F5
:10471000914030FA03F31943904001EBCC71002C27
:1047200001EB0451BDE81040A8BF704701F1C04142
:104730004FF0000001F000417047B0FA80F310FA2A
:1047400003F100D110BDE41A173C4805C90AE4E79B
:1047500001EB045110BD491001EB0451BDE81040BC
:104760004FEA300002E04FF0000170474A0008BFF6
:104770000042F8D0B2F5001F28BF704701F0004199
:104780004FF0000070479EEA445F07D011EA5E0FC9
:10479000BDE8104004BF002100207047BDE8104074
:1047A00070B5FFF7CBFE00BF40DFF63E83F000415F
:1047B000104670470000E0FF43004FEAD30C4FEA79
:1047C0003C0C43401FBF40070CF1605113F0FE4FFB
:1047D00070471CF0006F03D100200CF000417047BF
:1047E0000CF0004343EA507010B540EACC0000F0F2
:1047F0000CFA00BF000000924FEA0001FFF7ECBE88
:104800004FF000414FF00000A1F50021704700007B
:1048100090EA010F48BF81F0004100F17A82421A0C
:104820003CBF801A89184FEAD0524FF07F4C1CEAE7
:10483000410FA2EBD15318BF9CEA026F00F03B80FE
:104840004FF0004C4CEA00204CEA012121FA03FC15
:1048500010EB0C0C1ED202F1FF325FEA1C2040EB81
:10486000C25038BF70471CF07F0F4FEA400C18BF92
:10487000BCF17F4F38BF7047C3F12003994008BF98
:1048800020F00100BCF17F4F38BF7047A0F1C0405D
:1048900000F001BA4FEA3C00000A40EBC25028BFCA
:1048A0001CF0FF0F4FEA400CE6D018BFBCF17F4F61
:1048B00038BF7047EAE79CEA026F05D010EA5C0F48
:1048C00008BF00F00040704710B500F09EF900BF2F
:1048D00064FBBE3E401058BFC0F14040491058BF75
:1048E000C1F140418142EFF3008070474FF47F0CEB
:1048F0001CEAD0121EBF1CEAD11392EA0C0F93EAF5
:104900000C0F00F0858090EA010F48BF42F48072DE
:1049100040F4000C41F400002CF07F4120F07F4077
:1049200000B58142A2EB03020FF2081CACEB504E23
:10493000C0F100009EF800E04FEA4E0E00FB0EFCB6
:1049400038BF49004FEA2C1C02F5FA020CFB0EF3AB
:104950004FEACE1E4FEA112C4FEAC1210EEB635EE7
:1049600042EB22420EFB0CFC4FEA1C5300FB0311EE
:104970004FEA112C4FEA01310EFB0CFC4FEADC4CE4
:1049800000FB0C11C14228BF09184CEB03335DF842
:1049900004EB10EB410143EBC250B2F57C0F38BF82
:1049A000704729D512F0F00F1CBF00F1C04000F095
:1049B00000407047008182838485868788898B8C3C
:1049C0008D8E8F919293959697999A9C9D9FA0A278
:1049D000A3A5A7A8AAACAEB0B2B3B5B7B9BCBEC0C8
:1049E000C2C5C7C9CCCED1D4D7D9DCDFE2E6E9EC69
:1049F000F0F3F7FAFE0000004FEA400C0CF1807C67
:104A0000BCF17E4F28BF7047B0F1C04000F043B901
:104A100090EA010F0CEAD11348BF42F4807262455C
:104A200038BF634507D213F47F0F16D080EA010028
:104A300000F00040704710B500F0E7F8097EFC3E3A
:104A400000F005B880EA010000F00040704780EAFD
:104A5000010000F0004000F01EB912F47F0F04BF07
:104A60000248704780EA010000F015B90000C07FDD
:104A700010F0004148BF4042B0FA80F310FA03F250
:104A8000C3F19D030BD051EAC35101EB1220530631
:104A900038BF704700F1010008BF20F001007047E7
:104AA00050EA010C00F113801CF5000F58BFBCF553
:104AB000000F01D48842704707D710F5000F58BF88
:104AC00011F5000F15D488427047894270471CF5D4
:104AD000000F04D5BCF5000FF7D5814270474FF0A9
:104AE000807C1CEB400F38BF1CEB410F01D2814290
:104AF000704710B500F089F8922449004FF000503B
:104B00004FF08051FFF7E6BE4FF47F0C1CEAD01245
:104B10001EBF1CEAD11392EA0C0F93EA0C0F00F0AF
:104B2000478090EA010F48BF42F480724FF0004C7A
:104B30004CEA00204CEA012102EB0302A0FB011326
:104B4000A2F50002002918BF43F001035B0028BF53
:104B50004FEA330342EB22425FEA132C4CEBC25084
:104B60002EBFBCEB436FB2F57C0F70474FEA036C6E
:104B7000BCF1004F08BF20F00100B2F57C0F38BF38
:104B800070470BD582F0FF0212F5803FC8BF704717
:104B900000F1C040D8BF00F00040704700F5000CA5
:104BA0005FEA4C0C48BF7047B0F1C04000F073B8EA
:104BB00090EA010F0CEAD11348BF42F480726245BB
:104BC00038BF634504D280EA010000F0004070471E
:104BD00010B500F01AF800BF8900013E00F007B8D8
:104BE00000F009B85FEA410C5FEA1C6C08D080EA6B
:104BF000010000F050B85FEA400C5FEA1C6CF6D18F
:104C00004FF00040A0F5800070470EF1020E2EF02C
:104C1000030E5EF8044B244204D44FEA4102B2F181
:104C20007F4F11D84FEA4003B3F17F4F0CD80ED11C
:104C30004FEAD07CB2F17F4F0CEB4C0C0CF1020C24
:104C400008BF4CEBD17C04E04FF0080C01E04FEAC8
:104C5000D17C0CEB4C0324FA03F404F00704B4F108
:104C6000040C06D20EEB840CBDE810404CF0010C95
:104C70006047DFE80CF0070802024FF00040A0F5A3
:104C8000800010BD0846420018BFD2F1807288BF74
:104C900000F0004010BDFF2141EAD050C005704730
:104CA00051EA000C00F113801CF5000F58BFBCF551
:104CB000000F01D48142704707D711F5000F58BF8C
:104CC00010F5000F15D481427047894270471CF5DA
:104CD000000F04D5BCF5000FF7D5884270474FF0A0
:104CE000807C1CEB410F38BF1CEB400F01D2884287
:104CF000704780EA010081EA000180EA0100FFF7C5
:104D0000F8BE000090EA010F48BF81F000413FF576
:104D100086AD421A04D882F00042A0EB0200114492
:104D20004FEAD0524FF07F4C1CEA410FA2EBD15317
:104D300018BF9CEA026F4AD04FF0004C4CEA0020AA
:104D40004CEA012121FA03FCB0EB0C0C0FD412F059
:104D5000FE0F36D05FEA4C001DD5001240EBC2506A
:104D600038BF70471CF03F0F18BF70470BE0A2F12F
:104D700001025FEA1C2040EBC25038BF70471CF0B4
:104D80007F0F18BF7047C3F12003994014BF401E26
:104D900020F00100704780084FEA122308BF7047D7
:104DA000B0FA80FCA2EB0C02CCF1280C60FA0CF0FB
:104DB00093EA122F04BF00EBC25070474FEAC37052
:104DC0007047130A5FEADC1008BF7047F6E79CEAF9
:104DD000026F04D010EA5C0F08BF0020704710B5C6
:104DE000FFF713FF40DFF63E81F000407047FBF70E
:104DF00064BC0000000000000000002F0000000064
:104E00000700070000147F147F1400242A7F2A1251
:104E10000062640813230036495522500000050340
:104E2000000000001C224100000041221C00001470
:104E3000083E08140008083E0808000000A06000B2
:104E40000008080808080000606000000020100842
:104E50000402003E5149453E0000427F40000042AE
:104E600061514946002141454B31001814127F1011
:104E7000002745454539003C4A4949300001710940
:104E8000050300364949493600064949291E0000F4
:104E9000363600000000563600000008142241009B
:104EA00000141414141400004122140800020151CB
:104EB000090600324959513E007C1211127C007FD4
:104EC00049494936003E41414122007F4141221C6F
:104ED000007F49494941007F09090901003E4149D4
:104EE000497A007F0808087F0000417F41000020C8
:104EF00040413F01007F08142241007F4040404074
:104F0000007F020C027F007F0408107F003E4141B9
:104F1000413E007F09090906003E4151215E007FA4
:104F2000091929460046494949310001017F01011B
:104F3000003F4040403F001F2040201F003F4038BE
:104F4000403F0063140814630007087008070061FD
:104F50005149454300007F41410000552A552A55DB
:104F6000000041417F000004020102040040404073
:104F70004040000001020400002054545478007F97
:104F80004844443800384444442000384444487F6E
:104F900000385454541800087E0901020018A4A4D3
:104FA000A47C007F080404780000447D4000004099
:104FB00080847D00007F102844000000417F400075
:104FC000007C04180478007C080404780038444409
:104FD000443800FC242424180018242418FC007CE5
:104FE0000804040800485454542000043F4440205E
:104FF000003C4040207C001C2040201C003C4030F5
:10500000403C004428102844001CA0A0A07C004480
:1050100064544C44141414141414000000000000D0
:105020000000000000000000FC0000000000020082
:105030000000000C020C020000000000000090D0F4
:10504000BCD0BC900003000300001824FE448C0078
:105050000302070201001824D8B04C8000030001AD
:105060000201C038E438E000010202010202080631
:1050700000000000000000000000000000F8040232
:10508000000000010204000204F800000004020114
:1050900000009060F86090000000010000002020F7
:1050A000FC202000000001000000000000000000C3
:1050B0000806000000002020202020000000000042
:1050C000000000000000000000020000000000805E
:1050D000601C0200040300000000F8040404F8004F
:1050E0000102020201000008FC00000000020302AD
:1050F000000018844424180003020202020008047D
:105100002424D80001020202010040B088FC800083
:105110000000000302003C242424C4000102020217
:105120000100F824242CC0000102020201000C043A
:10513000E41C0400000003000000D8242424D8004C
:1051400001020202010038444444F8000003020254
:10515000010000001000000000000200000000003C
:10516000200000000000060000000020508804021B
:10517000000000000102909090909000000000005C
:105180000000000204885020000201000000180402
:10519000C4241800000002000000F804E494F800A1
:1051A00001020202020000E09CF080000203000005
:1051B000030204FC2424D800020302020100F804C4
:1051C00004040C0001020202010004FC0404F800C3
:1051D00002030202010004FC24740C000203020218
:1051E000030004FC24740C00020302000000F00819
:1051F0000444CC4000010202010004FC2020FC0415
:105200000203000003020404FC040400020203027F
:105210000200000404FC040406040403000004FC6F
:1052200024D00C0402030200030204FC040000006A
:10523000020302020203FC3CC03CFC00030003002A
:10524000030004FC30C4FC04020302000300F80461
:105250000404F80001020202010004FC24241800E6
:10526000020302000000F8848404F800010202072F
:10527000050004FC246498000203020003021824C1
:1052800024448C000302020201000C04FC040C0004
:1052900000020302000004FC0000FC040001020202
:1052A0000100047C80E01C040000030000001CE0FE
:1052B0003CE01C00000300030000049C609C040010
:1052C000020300030200041CE01C040000020302AD
:1052D00000000C84641C04000203020203000000AE
:1052E000FE020200000007040400000E30C00000AF
:1052F000000000010200000202FE0000000404079A
:105300000000000402040000000000000000000093
:10531000000000000808080808080000020000005B
:105320000000000000000040A0A0C0000001020238
:10533000030204FC2020C00000030202010000C0A0
:105340002020600000010202020000C02024FC00B6
:1053500000010202030200C0A0A0C000000102027E
:1053600002000020F824240400020302020000408E
:10537000A0A0602000070A0A0A0404FC2020C00044
:105380000203020003020020E40000000002030206
:105390000000000020E4000008080807000004FCEA
:1053A00080E020200203020003020404FC0000004D
:1053B000020203020200E020E020C000030003001C
:1053C000030020E02020C00002030200030200C00E
:1053D0002020C00000010202010020E02020C000C7
:1053E000080F0A02010000C02020E0000001020AAC
:1053F0000F0820E0402020000203020000000060AF
:10540000A0A020000002020203000020F8200000FB
:1054100000000102020020E00020E0000001020282
:10542000030220E020806020000003010000608073
:10543000E080600000030003000020608060200026
:1054400002030003020020E020806020080807011A
:1054500000000020A0602000000203020200000003
:1054600020DE0200000000070400000000FF000032
:105470000000000F00000002DE2000000004070012
:10548000000002010204040200000000000000000D
:10549000000000000000000000000000000000000C
:1054A00000F8000000000000003330000000001091
:1054B0000C06100C0600000000000000000040C0B8
:1054C0007840C0784000043F04043F0404000070AA
:1054D00088FC08300000001820FF211E0000F008A2
:1054E000F000E018000000211C031E211E0000F047
:1054F0000888700000001E2123241927211010168F
:105500000E0000000000000000000000000000008D
:1055100000E018040200000000071820400000020C
:105520000418E00000000040201807000000404080
:1055300080F0804040000202010F010202000000E2
:1055400000F0000000000101011F01010100000046
:1055500000000000000080B07000000000000000AB
:105560000000000000000001010101010101000034
:1055700000000000000000303000000000000000CB
:10558000000080601804006018060100000000E0C0
:1055900010080810E000000F102020100F0000106D
:1055A00010F8000000000020203F202000000070C4
:1055B00008080888700000302824222130000030BC
:1055C0000888884830000018202020110E000000B4
:1055D000C02010F8000000070424243F240000F835
:1055E0000888880808000019212020110E0000E01A
:1055F000108888180000000F112020110E000038BC
:105600000808C83808000000003F000000000070D3
:10561000880808887000001C222121221C0000E05C
:1056200010080810E0000000312222110F000000D5
:1056300000C0C0000000000000303000000000008A
:1056400000800000000000008060000000000000FA
:105650008040201008000001020408102000404093
:1056600040404040400004040404040404000008D6
:10567000102040800000002010080402010000708B
:1056800048080808F0000000003036010000C03073
:10569000C828E810E0000718272423140B00000096
:1056A000C038E0000000203C23020227382008F820
:1056B000888888700000203F202020110E00C03014
:1056C000080808083800071820202010080008F8EB
:1056D00008080810E000203F202020100F0008F8E4
:1056E0008888E8081000203F20202320180008F8B0
:1056F0008888E8081000203F200003000000C03028
:1057000008080838000007182020221E020008F8A8
:1057100008000008F808203F210101213F2000086F
:1057200008F8080800000020203F202000000000AA
:105730000808F8080800C08080807F00000008F892
:1057400088C028180800203F20012638200008F8CB
:10575000080000000000203F20202020300008F832
:10576000F800F8F80800203F003F003F200008F84C
:1057700030C00008F808203F200007183F00E01064
:1057800008080810E0000F10202020100F0008F873
:1057900008080808F000203F210101010000E01086
:1057A00008080810E0000F18242438504F0008F8AB
:1057B000888888887000203F2000030C302000700B
:1057C0008808080838000038202121221C00180809
:1057D00008F8080818000000203F2000000008F822
:1057E00008000008F808001F202020201F0008786B
:1057F000880000C83808000007380E010000F808CB
:1058000000F80008F800033C0700073C03000818F4
:1058100068808068180820302C03032C302008385A
:10582000C800C83808000000203F20000000100811
:105830000808C83808002038262120201800000059
:1058400000FE020202000000007F40404000000C09
:1058500030C000000000000000010638C000000257
:105860000202FE000000004040407F0000000000F7
:10587000040202020400000000000000000000001A
:105880000000000000008080808080808080000216
:105890000204000000000000000000000000000002
:1058A0008080808000000019242222223F2008F8F6
:1058B000008080000000003F112020110E00000039
:1058C000008080800000000E1120202011000000C8
:1058D00000808088F800000E112020103F2000007A
:1058E000808080800000001F22222222130000807E
:1058F00080F0888888180020203F202000000000C9
:10590000808080808000006B94949493600008F8FD
:10591000008080800000203F210000203F20008088
:105920009898000000000020203F20200000000088
:1059300000809898000000C08080807F000008F8F8
:10594000000080808000203F24022D3020000008CD
:1059500008F8000000000020203F20200000808088
:10596000808080808000203F20003F20003F80809A
:10597000008080800000203F210000203F200000A8
:10598000808080800000001F202020201F00808059
:1059900000808000000080FFA12020110E00000088
:1059A000008080808000000E112020A0FF80808079
:1059B00080008080800020203F2120000100000026
:1059C00080808080800000332424242419000080FB
:1059D00080E0808000000000001F20200000808008
:1059E000000000808000001F202020103F208080C9
:1059F00080000080808000010E3008060100808059
:105A00000080008080800F300C030C300F0000807D
:105A10008000808080000020312E0E3120008080A8
:105A200080000080808080818E70180601000080D8
:105A30008080808080000021302C222130000000F6
:105A40000000807C020200000000003F4040000097
:105A50000000FF00000000000000FF000000000246
:105A6000027C800000000040403F00000000000673
:105A70000101020204040000000000000000000018
:105A80000000000000000000000000000000000016
:105A90000000000000000000000000000000000006
:105AA00000000000000000F0F0F000000000000026
:105AB000000000017F010000000000000000001C49
:105AC0001C1C0000000000008060301C8C60301C3A
:105AD0000C000000000000000000000000000000BA
