:020000040800F2
:10000000500A0020AD010008E12A00082B2A000850
:10001000DD2A0008071F0008F5380008000000006E
:100020000000000000000000000000009131000806
:10003000AB260008000000000B300008F932000871
:10004000C7010008C7010008C7010008C701000870
:10005000C7010008C7010008C7010008C701000860
:10006000C7010008C7010008C7010008F123000804
:10007000C7010008C7010008C7010008C701000840
:10008000C7010008C7010008C7010008C701000830
:10009000B1380008C7010008C7010008C7010008FF
:1000A000C7010008C7010008C7010008C701000810
:1000B0005D3300086D360008C7010008C70100085D
:1000C000C7010008C7010008C7010008C7010008F0
:1000D000C7010008C7010008C7010008C7010008E0
:1000E000C7010008C7010008C7010008C7010008D0
:1000F00000F002F800F04AF80AA090E8000C8244F0
:100100008344AAF10107DA4501D100F03FF8AFF2CC
:10011000090EBAE80F0013F0010F18BFFB1A43F0E5
:1001200001031847705B0000905B0000103A24BF89
:1001300078C878C1FAD8520724BF30C830C144BF4C
:1001400004680C607047000000230024002500268E
:10015000103A28BF78C1FBD8520728BF30C148BF2A
:100160000B607047662903F04186642900F08680A1
:10017000002070471FB500F007FC0400002000219C
:1001800003F046FCE0601FBD10B510BD00F000FD9F
:100190001146FFF7EFFF03F0DDFB00F01EFD03B497
:1001A000FFF7F2FF03BC00F061FD00000948804743
:1001B00009480047FEE7FEE7FEE7FEE7FEE7FEE749
:1001C000FEE7FEE7FEE7FEE704480549054A064B61
:1001D00070470000FD320008F100000850040020C4
:1001E000500A002050060020500600200FB4044999
:1001F00010B503AA029800F0B5FB10BC5DF814FB23
:100200003C0000200FB41CB5074B06AA7B4469468E
:100210000090059800F08DFB0020694600F09CFBE3
:100220001CBC5DF814FB00004907000070B50446D3
:1002300085690068C10601D5302600E02026C00788
:1002400007D070BDD4E9012130469047206A401C98
:1002500020626D1EF6D570BD70B5044685690078C4
:10026000C00707D170BDD4E9012120209047206A42
:10027000401C20626D1EF6D570BD00002DE9F041D6
:100280000646002410687529314616A510D0AFF334
:100290000080002802DA404213A507E031688A078F
:1002A00001D512A502E0490704D511A5012401E0FA
:1002B000AFF3008000210A2206F1240709E0B0FB19
:1002C000F2FCB0FBF2F302FB1C003030785418460D
:1002D000491C0028F3D123462A463046BDE8F041A8
:1002E00000F0B9B8000000002D0000002B00000055
:1002F000200000002DE9F0474FF0000A894604462F
:10030000C0F820A02046E1688847002876D025283C
:1003100006D0D4E901219047206A401C2062F1E711
:10032000E168204600258847C4F81CA0064600273F
:10033000C4F818A02A2E09D0304603F0F1FA38B3D9
:1003400004EB8708303EC8F8186019E059F8041B20
:10035000204604EB87029161E1688847012F064639
:1003600018D1E069002820DA25F020051DE0D8F832
:10037000180000EB800006EB40003038C8F8180089
:100380002046E1688847064603F0CAFA0028EED105
:10039000012F0AD02E2E08D12046E16888477F1C05
:1003A0000646022F45F02005C4DBA069002803DAC9
:1003B000404245F00105A061E80701D025F0100595
:1003C000B6B1A6F14100192802D8203645F40065DF
:1003D0004A463146204625604D46FFF7C3FE58B1D8
:1003E000012806D0ED1D25F0070000F1080989E776
:1003F00004E005F1040985E730468AE7206ABDE894
:10040000F0874FF0000200B5134694469646203917
:1004100022BFA0E80C50A0E80C50B1F12001BFF4BD
:10042000F7AF090728BFA0E80C5048BF0CC05DF823
:1004300004EB890028BF40F8042B08BF704748BF71
:1004400020F8022B11F0804F18BF00F8012B7047E5
:100450007047704770472DE9F0470D469946924620
:10046000044600F124080168880604D5E06921F0FB
:100470001001216000E00120A84201DD471B00E0DF
:100480000027A1697A1902EB0900081AA0612078F7
:10049000C00602D42046FFF7C9FE002608E0D4E9D2
:1004A00001211AF806009047206A401C761C206241
:1004B0004E45F4DB2078C0060AD52046FFF7B6FE8D
:1004C00006E0D4E9012130209047206A401C2062D8
:1004D000381EA7F10107F4DC07E0D4E9012118F880
:1004E00005009047206A401C2062281EA5F10105E6
:1004F000F3DC2046FFF7B0FE2078000602D502208C
:10050000BDE8F0870120FBE770472DE9FF4F0C465F
:100510001E464FF0FF378BB0D2E90001DDF8608056
:100520000A908A46C1F30A5505B93D46002108469E
:100530004FF00000BAF1000F00F4400005DA00EBC4
:1005400080004FF4400101EA50004FEA9059B9F1A0
:10055000010F00DDB9460A9850EA4A000ED044F671
:100560001050A5F2FF3545432F14B8F1000F1ED0EF
:100570007542291E1EDDC9F100021CE0B8F1010F11
:100580004FF0000001D0302103E0F24305E0215498
:10059000401CB042FBDB30460022002121540B9965
:1005A000C1F80880C1E900200FB0BDE8F08FBD1B85
:1005B0006D1CDEE74A4600DA694206A800F06EFAD2
:1005C00006AB93E8070003AB83E8070050460A999F
:1005D00000F053FB8DE80700A0F500501F38009095
:1005E0000398002D0ADD42F21F014A460844002309
:1005F00003A90390684600F0BCFD09E0A0F5005097
:100600004A461F38002303A90390684600F0C6FD40
:100610008DE807000004000C03D04FF0FF304108C4
:1006200000E01046B8F1000F03D0002200921546FA
:100630001EE0751E05D400F0ABF9303262556D1E18
:10064000F9D5B3460122084302D000227F1C04E002
:100650002078302801D100227F1E002A099784D0FB
:100660001DE0112D07DA00F093F9303262556D1C50
:1006700050EA0102F5D1084302D00098C8B10EE05B
:100680000021681E05E0235C625C63542254401E16
:10069000491C8142F7DBAB46A81B401E0990002095
:1006A00004F80B000B98099AC0F80880C0E9002BE9
:1006B0007AE711264FF0000857E72DE9F04F8846FA
:1006C0000446D21D22F0070191B0D1E90001CDE925
:1006D0000A0103F011F902460B98C00F01D02D203A
:1006E00007E02068810701D52B2002E0202101EAE4
:1006F000C000032A099001D0072A05DB03464146C2
:10070000204600F08BF90BE12078800601D5E069E6
:1007100000E00620B8F1650F814606D0B8F1660FFB
:1007200018D0B8F1670F70D131E00020B9F1110F86
:10073000009001DB112301E009F101030AAA01A9DC
:100740000CA8FFF7E2FEDDE90C70002609F10105B7
:10075000834647E001204B4600904FF000470AAA2D
:1007600001A90CA8FFF7D1FEDDE90DB00C995D469B
:10077000002610B909F101000D18B9EB050003D4EA
:10078000C0F1FF3609F10105A5EB09002BE0B9F135
:10079000010F01DA4FF001090020B9F1110F0090AB
:1007A000484601DD112300E003460AAA01A90CA86E
:1007B000FFF7ABFEDDE90C704D460026834620783E
:1007C00000070AD4AB4500DA5D4601A8012D04DD1F
:1007D000411911F8011C302907D04F4502DA17F1F1
:1007E000040F04DA012082460FE06D1EEEE7002FB1
:1007F00002DCED1B3E4403E0781CA84200DD7D1CBA
:10080000B81B00F1010A4FF000472078000703D41D
:10081000AA4501DB4FF0FF3A0021B7F1004F0DF17F
:1008200043088DF8431024D002202B23002F01DA37
:100830007F422D230A21021EA0F1010000DC5FB1DE
:1008400097FBF1FC97FBF1F201FB1C7C17460CF1C6
:10085000300C08F801CDEEE7A8F101000370218803
:10086000090501D5452100E06521A0F1010800F846
:10087000011C09980FA9A1EB0807FF1D00B1012079
:10088000411901EBEA70A1693844081A401EA061C1
:100890002078C00602D42046FFF7C8FC099828B18A
:1008A000D4E901219047206A401C20622078C006CC
:1008B00022D52046FFF7BAFC1EE0002E04DBB3452C
:1008C00002DD01A8805D00E03020D4E901219047DD
:1008D000206A401C2062761CAAF101005FEA000A2F
:1008E0000AD100F051F8C0680168405CD4E90121E8
:1008F0009047206A401C2062281EA5F10105DCDC1F
:1009000007E0D4E9012118F8010B9047206A401C48
:100910002062381EA7F10107F3DC2046FFF79CFC9C
:10092000032011B041E6000001694A1C0261087809
:10093000704700B58FB0CDE901310021059105491F
:100940007944CDE9031011466846FFF7D3FC0FB098
:1009500000BD0000E5FFFFFF0A6802F8010B0A6016
:1009600070470000074B70B50D467B44FFF7E1FF71
:100970000446284600F004F910B14FF0FF3070BD76
:10098000204670BDC32F00000048704710040020AF
:1009900030B5B0F10A024FEA900E71F100034EEA51
:1009A000817EB0EB0E0061EB91014FEA101E4EEA22
:1009B000017E10EB0E0041EB11114FEA102E4EEAB2
:1009C000016E10EB0E0041EB11214FEA104E4EEA82
:1009D000014E10EB0E0041EB1141401841F10001B6
:1009E0004FEAD00040EA41704FEAD10110EB800598
:1009F0004FEA810444EA907444EB01046D1944EB1E
:100A00000404521BA3414FF0000348BF0A3200D533
:100A100030BD401C41F1000130BD00002DE9F04126
:100A20001F46044603260168072A01F4006004DB20
:100A300008B116A505E016A503E008B115A500E06C
:100A400015A521F010002060A069C01EA0610FB1A3
:100A5000401EA0612046FFF7E9FB4FB1D4E9012118
:100A600038469047206A401C2062C01C206206E085
:100A7000206AFAE7D4E9012115F8010B9047761EA8
:100A8000F8D22046FFF7E8FBBDE8F0814E414E006A
:100A90006E616E00494E4600696E66002DE9F047B2
:100AA000814616468AB0354878440DC88DE80D0059
:100AB00032487844801C03AC0DC884E80D0041F630
:100AC0009B300844372190FBF1F290FBF1F5A5F142
:100AD000800501FB12041B3C02D56442012000E0AA
:100AE0000020DFF898A080460027FA44AAF1BE0A49
:100AF0000EE0E0070AD03246684607EB47010123C3
:100B00000AEB810100F04AFB8DE8070064107F1CAE
:100B1000002CEED1194F7F44AE3F19E0E80715D005
:100B200007EB04100DF1180A90E80E008AE80E0099
:100B3000C068F04201D1981908903246012306A9F5
:100B400003A800F02BFB03AB83E807006D10641CC7
:100B5000002DE3D14FF0010332466946B8F1000F92
:100B600003A802D000F005FB01E000F017FBC9E983
:100B70000001C9F808200AB0BDE8F087D051000094
:100B8000007B00F08000704700487047F0030020B1
:100B90007546FFF7F9FFAE4605006946534620F05B
:100BA0000700854618B020B5FFF70EFBBDE82040D2
:100BB0004FF000064FF000074FF000084FF0000B19
:100BC00021F00701AC46ACE8C009ACE8C009ACE8CC
:100BD000C009ACE8C0098D46704710B50446AFF3B4
:100BE00000802046BDE81040FFF7D9BA4FF0013C25
:100BF00050F8042B51F8043B9A4221D1A2EB0C038C
:100C0000934313EACC1317D150F8042B51F8043B4B
:100C10009A4215D1A2EB0C03934313EACC130BD1E8
:100C200050F8042B51F8043B9A4209D1A2EB0C0373
:100C3000934313EACC13DBD04FF00000704700BFA2
:100C4000D01A01BAB1FA81F101F0180122FA01F0CB
:100C5000CB40C1F12001DBB2C0B2C01A2CFA01F3C3
:100C6000D11A914311EAC311E6D170470149182006
:100C7000ABBEFEE72600020070475FEA400C08BFEB
:100C800091F0000F4FEA8C234FEAC12243EA515101
:100C90004FEA1C5018BF00F5F0404FEA300018BF73
:100CA00041F000415FEA6C5C00F02980BCF1FF3F3D
:100CB00008BF40F080407047130C06BF12044FF08D
:100CC000100C4FF0000C130E04BF12020CF1080CB4
:100CD000130F04BF12010CF1040C930F04BF920018
:100CE0000CF1020CD30F04BF52000CF1010C1146A1
:100CF0004FF00002A0F11F00A0EB0C00704711F0B4
:100D0000004F08BF704731F000413FF4D5AF0B0CE6
:100D100006BF09044FF0100C4FF0000C0B0E04BF7F
:100D200009020CF1080C0B0F04BF09010CF1040CB3
:100D30008B0F04BF89000CF1020CCB0F04BF4900DC
:100D40000CF1010CCCF12003A0EB0C0022FA03F310
:100D500002FA0CF241EA030100F10100704720F0B1
:100D60007F4C80EA030023F07F47ACEB070303F5D9
:100D70007C5300F0004003F1FF032DE980494FEA66
:100D8000154B09B44FEA144325EA0B4E24EA0348F5
:100D90000FF2042606EB132749083E785FEA320279
:100DA00003FB0667C7F5000707FB06F64FEA543753
:100DB0004FEAD64606F1020607FB066CCCF1005C52
:100DC0004FEA1C472CEA074C07FB06F40CFB06F520
:100DD00004EB15464FEA961634BF00204FF0004052
:100DE0004FEAD13706FB07FC4FEA1C4C0CFB0BF714
:100DF000D21B03FB0CF761EB07010CFB0EF7B0EB0A
:100E0000074072EB17420CFB08F734BFA2EB074216
:100E1000B2EB074261EB17414FEA0C444FEA9107EE
:100E200006FB07FC4FEA1C4C0CFB0BF7B0EBC74072
:100E300072EB573203FB0CF734BFA2EBC742B2EBA5
:100E4000C74261EB57310CFB0EF7B0EBC70072EBFA
:100E500057720CFB08F734BFA2EBC702B2EBC70214
:100E600061EB5771039F4FEA816141EA921104EBF4
:100E7000CC044FEAD1374FEA826206FB07FC42EA14
:100E800090124FEA80604FEA1C4C0CFB0BF7D21B10
:100E900003FB0CF761EB07010CFB0EF7B0EB07400F
:100EA00072EB17420CFB08F734BFA2EB0742B2EB20
:100EB000074261EB17414FEA8C554FEA910704EB6B
:100EC0009C2406FB07FC4FEA1C4C0CFB0BF7B0EB19
:100ED000C74072EB573203FB0CF734BFA2EBC7429B
:100EE000B2EBC74261EB57310CFB0EF7B0EBC7001A
:100EF00072EB57720CFB08F734BFA2EBC702B2EBE0
:100F0000C70261EB577115EB4C254FEA816141EA4D
:100F100092114FEA82624FEAD13742EA901206FB01
:100F200007FC44F100044FEA80604FEA1C4C0CFBC4
:100F30000BF7D21B03FB0CF761EB07010CFB0EF761
:100F4000B0EB074072EB17420CFB08F734BFA2EB83
:100F50000742B2EB074261EB174115EB1C154FEA54
:100F6000813141EA92414FEA823242EA90424FEAAD
:100F700080304FEA0C7644F1000448EA03434EEA1D
:100F80000B484FF0000EB2EB080C71EB030724BFC7
:100F9000624639464EEB0E0E4FF0000B00185241E0
:100FA00049414BEB0B0BB2EB080C71EB03077BF1E8
:100FB000000B24BF624639464EEB0E0E4FF0000B7D
:100FC0000018524149414BEB0B0BB2EB080C71EB93
:100FD00003077BF1000B24BF624639464EEB0E0E31
:100FE00051EA020718BF46F0010616EB0E7655F1DE
:100FF000000254F1000103D5BDE88901BDE8008875
:10100000BDE88901BDE80048B619524141EB010134
:10101000A3F10103704780807F7E7D7C7B7A7978A5
:10102000777676757473727171706F6E6E6D6C6CAD
:101030006B6A6A696868676666656464636362614F
:101040006160605F5F5E5E5D5D5C5C5B5B5A5A59D0
:10105000595858575756565555555454535352523C
:101060005251515050504F4F4F4E4E4D4D4D4C4C94
:101070004C4B4B4B4A4A4A494949484848474747DD
:10108000474646464545454444444443434343421A
:10109000424242414141002B9C4630D477002BD044
:1010A0001CB54FEA370703B44FF010004FF01001A2
:1010B000BAF1000F06D0BCF1000FDCBF40F0080011
:1010C00040F008014FF000000FBCBDE810400BF1EC
:1010D000010BBBF1010F08BF5FEA170722BF12F136
:1010E000010211F101014FF0004143F1000300F052
:1010F000004043EA00007047F9D35708D0E746EABA
:10110000064613F1400F4FEA16461FDD13F1200F7C
:10111000DFBF16430A46002120335B42BED0C3F135
:10112000200746EA064602FA07F74FEA164646EA5D
:101130000706C3F1200722FA03F201FA07F721FAA2
:1011400003F14FF0000342EA0702A7E746EA02066E
:1011500046EA06464FEA164646EA0106BCBF46EA9C
:101160000646360C4FF000034FF000024FF000012E
:1011700094E72DE9804C9A46934670B491E8380084
:1011800007C831EA400C48BF34EA430C03D5FFF7E7
:10119000E6FDFFF780FFF0BCBDE8008C2DE9804C38
:1011A0009A46934670B491E8380007C810F0804F13
:1011B00008BF13F0804F03D100F005F8FFF76BFF75
:1011C000F0BCBDE8008C20F07F4780EA030023F0EC
:1011D0007F4C07EB0C03A3F57C5300F00040A3F118
:1011E000FE0392F0000F00F0B38095F0000F00F0C6
:1011F00077802DE901494FEA11404FEA144621EA70
:10120000004800FB06FC24EA064708FB06F607FB3D
:1012100008F800FB07F718EB06484CEB164C4FEAB2
:10122000124B18EB07484FEA15464CEB174022EAE1
:101230000B4E0BFB06FC25EA06470EFB06F607FBEA
:101240000EFE0BFB07F71EEB064E4CEB164C4FF059
:1012500000061EEB074E4CEB174B18EB0B0840F14A
:10126000000018EB0E0B58EB000840F100008F1A3D
:101270004FF000013CBFC943661B14BFB5EB040C23
:1012800000213CBFC943F61B4FEA17444EEA8E0EBD
:1012900027EA04454FEA1C4704FB07622CEA074C87
:1012A00005FB07F70CFB05F604FB0CFC16EB0746E9
:1012B00042EB174216EB0C4642EB1C421BEB0606B8
:1012C00058EB0202414146EA9E0601D5BDE801897C
:1012D000B619524141EB0101A3F10103BDE80189B7
:1012E0004FEA14454FEA114724EA054621EA074C24
:1012F00005FB07F406FB07F70CFB06F105FB0CFCEE
:1013000011EB074144EB17444FEA124711EB0C4134
:1013100044EB1C4422EA074C05FB07F206FB07F7E7
:101320000CFB06F605FB0CFC16EB074642EB1742DE
:1013300016EB0C4642EB1C456A1854F1000148BFFD
:101340007047B619524141EB0101A3F10103704707
:1013500095F0000F37D04FEA11424FEA144721EAC7
:10136000024624EA074C02FB07F106FB07F70CFBD9
:1013700006F402FB0CFC14EB074441EB17414FEA67
:10138000154714EB0C4441EB1C4125EA074C02FBCA
:1013900007F506FB07F70CFB06F602FB0CFC16EB49
:1013A000074645EB174516EB0C4645EB1C42121958
:1013B00051F1000148BF7047B619524141EB01019C
:1013C000A3F1010370474FEA14454FEA114724EA9D
:1013D000054621EA074C05FB07F106FB07F70CFB66
:1013E00006F24FF0000605FB0CFC12EB074241EB46
:1013F000174112EB0C4251EB1C4148BF7047921849
:1014000041EB0101A3F10103704721B1826842F071
:101410000102826003E0826822F00102826070476C
:1014200021B1826842F48072826003E0826822F413
:10143000807282607047000010B5044605488442FF
:1014400007D10121401501F01DFE0021601501F0BA
:1014500019FE10BD0024014021B1826842F48012BF
:10146000826003E0826822F4801282607047014645
:1014700000208A6802F004020AB1012000E0002086
:101480007047014600208A6802F008020AB1012074
:1014900000E000207047000030B502460020002325
:1014A00050680F4C20400D790C6844EA0524204315
:1014B000506090680B4C2040D1E902542C434D7988
:1014C00044EA450420439060D06A20F470000C7C0C
:1014D000641EE4B2234340EA0350D06230BD0000F2
:1014E000FFFEF0FFFDF7F1FFF0B504460D460020CA
:1014F0000021092D11DDE068A5F10A0606EB46077B
:10150000072606FA07F18843A5F10A0606EB460608
:1015100003FA06F10843E0600CE0206905EB45079B
:10152000072606FA07F1884305EB450603FA06F19C
:1015300008432061072A0FDA606B561E06EB860708
:101540001F2606FA07F18843561E06EB860605FAA3
:1015500006F10843606322E00D2A0FDA206BD61FE4
:1015600006EB86071F2606FA07F18843D61F06EB0F
:10157000860605FA06F10843206310E0E06AA2F14E
:101580000D0606EB86071F2606FA07F18843A2F12F
:101590000D0606EB860605FA06F10843E062F0BD8B
:1015A000816841F008018160704721B1826842F48E
:1015B000A002826003E0826822F4A0028260704789
:1015C000816841F0040181607047000000B587B078
:1015D000142102A8FEF715FF00200190012104202C
:1015E00001F040FD0121082001F03CFD01214802ED
:1015F00001F038FD4FF4404001F008FDFF20ADF848
:10160000040000208DF8070001A9404801F096F879
:101610000120ADF8040000208DF8070001A93C4826
:1016200001F08CF83B48FFF707FF0020029005907F
:1016300001208DF80C008DF80D004FF4602004900F
:1016400009208DF8180002A93248FFF725FF07236B
:10165000012219462F48FFF747FF072302220621E0
:101660002C48FFF741FF0723032205212948FFF7F4
:101670003BFF0723042211462648FFF735FF0723C7
:10168000052203212348FFF72FFF0723062202210B
:101690002048FFF729FF07231A4601211D48FFF7BD
:1016A00023FF0723082200211A48FFF71DFF072305
:1016B000092208211748FFF717FF01211548FFF7F6
:1016C000CBFE01211348FFF7ABFE01211148FFF7C4
:1016D0009CFE1048FFF764FF00BF0E48FFF7D1FEE5
:1016E0000028FAD10B48FFF76BFF00BF0948FFF74E
:1016F000BEFE0028FAD1074801F001F9064908802A
:1017000001210448FFF751FF07B000BD0008014068
:10171000000C0140002401401800002010B50648CC
:1017200000F02CF90549087000F00AF800F072F991
:10173000FFF74CFF10BD00001C0300201A00002022
:1017400008B5002000904FF4A06001F003FA0B20D0
:101750008DF8000000208DF801008DF802000120B6
:101760008DF80300684601F0BDF908BD00B589B0E9
:101770000020089005900690079001900290039039
:1017800004900121092001F06DFC0121480601F0BF
:1017900059FC01214FF4EA1001F05CF84FF400709D
:1017A000ADF8200018208DF8230003208DF82200CA
:1017B00008A9294800F0C2FF4FF48070ADF820005E
:1017C00048208DF8230008A9234800F0B7FF002027
:1017D0008DF81A008DF81B008DF81C0001208DF883
:1017E0001D0000208DF81E008DF81F008DF81600DA
:1017F0008DF8170005208DF8180004208DF81900C9
:101800000C20ADF8140005A9144800F00CFC0020D1
:101810008DF80E008DF80F0001208DF81000104893
:1018200000884FF6FF7101EA4010ADF80400002077
:10183000ADF806004FF6E070ADF808000E20ADF8E8
:101840000A000020ADF80C0001208DF8110001A85D
:1018500000F05CFB09B000BD000C014000640040DA
:101860002200002010B500F023F8FFF77FFF00F002
:1018700001F810BD08B5002000904FF4A06001F001
:1018800069F914208DF8000001208DF80100002076
:101890008DF8020001208DF80300684601F022F95E
:1018A00001220221014800F0B5FB08BD00640040A0
:1018B00010B5002402210F4801F014F82044C4B2EE
:1018C0004FF480510C4801F00DF804EB4000C4B215
:1018D0004FF40041084801F005F804EB8000C4B261
:1018E0000821044800F0FEFF04EBC000C4B2034826
:1018F000048010BD000C01400008014022000020BF
:10190000F0B585B006460D46002414216846FEF762
:1019100078FD184800880090002001908DF808009C
:101920008DF809008DF80A5000BF05E0315D0DF11A
:101930000B000155601C84B2AC42F7DB69460E48CF
:1019400000F073FC0746002401E0601C84B23946B5
:10195000094800F0FDFC012803D040F6FF708442E6
:10196000F3DB40F6FF70844202D1012005B0F0BDE8
:101970000020FBE722000020006400400246002116
:1019800000BF08E002F1CC00405C012801D100203A
:101990007047481CC1B20829F4DB0120F8E70000B9
:1019A00038B50020009000240121042001F05AFBEA
:1019B0000121082001F056FB4FF47060ADF80000E3
:1019C00010208DF8030003208DF8020069460E48B0
:1019D00000F0B4FEF020ADF8000010208DF80300F8
:1019E00003208DF802006946084800F0A7FE00BFFA
:1019F00006E000222146064800F05EF9601CC4B2F1
:101A0000082CF6DB38BD000000080140000C014046
:101A10001C03002000B58BB02C216846FEF7F1FCBA
:101A20000121084601F0FEFA144800F05BFD14485D
:101A3000009014480190002002900920039000209B
:101A400004908020059040000690800007902020A0
:101A500008904FF44050099000200A9069460748CA
:101A600000F005FE0121054800F030FD01220221B1
:101A7000024800F0F3FD0BB000BD0000080002407A
:101A80004C240140780200202DE9F04704460D4621
:101A900021886A4A1288881A02F0C4F88146684987
:101AA00002F0D8F880464FF08B4101F0F9FF07466D
:101AB000644901F0F5FF0646634901F0F1FF286033
:101AC00061885E4A5288881A02F0ACF881465C4907
:101AD00002F0C0F880464FF08B4101F0E1FF07466D
:101AE000584901F0DDFF0646574901F0D9FF68600B
:101AF000A188524A9288881A02F094F88146504987
:101B000002F0A8F880464FF08B4101F0C9FF07466C
:101B10004C4901F0C5FF06464B4901F0C1FFA860E2
:101B2000E188464AD288881A02F07CF88146444906
:101B300002F090F880464FF08B4101F0B1FF07466C
:101B4000404901F0ADFF06463F4901F0A9FFE860BA
:101B500021893A4A1289881A02F064F88146384984
:101B600002F078F880464FF08B4101F099FF07466C
:101B7000344901F095FF0646334901F091FF286191
:101B800061892E4A5289881A02F04CF881462C4904
:101B900002F060F880464FF08B4101F081FF07466C
:101BA000284901F07DFF0646274901F079FF686169
:101BB000A189224A9289881A02F034F88146204984
:101BC00002F048F880464FF08B4101F069FF07466C
:101BD0001C4901F065FF06461B4901F061FFA86141
:101BE000E189164AD289881A02F01CF88146144904
:101BF00002F030F880464FF08B4101F051FF07466C
:101C0000104901F04DFF06460F4901F049FFE86118
:101C1000218A0A4A128A881A02F004F88046084982
:101C200002F018F807464FF08B4101F039FF0646E5
:101C3000064902F00FF82862BDE8F0878A0200200A
:101C4000333353400000C842A69B443B7373234187
:101C500008B5002000900121042001F003FA0121C1
:101C6000082001F0FFF904208DF8030003208DF80F
:101C700002000220ADF8000069460D4800F05EFD4C
:101C80004FF48050ADF8000069460A4800F056FD58
:101C90004FF40040ADF800006946064800F04EFDE4
:101CA0000820ADF800006946014800F047FD08BD76
:101CB000000C01400008014070B504460D46164670
:101CC000002E4ED0092D4AD2DFE805F049050E1747
:101CD0002029313941004FF400614A4800F00DFEDF
:101CE000012084F8CC003BE04FF48061454800F0CF
:101CF00004FE0121CD20015532E04FF4007141482E
:101D000000F0FBFD0121CE20015529E04FF4807148
:101D10003C4800F0F2FD0121CF20015520E0802158
:101D2000394800F0EAFD0121D020015518E040219A
:101D3000354800F0E2FD0121D120015510E02021BD
:101D4000314800F0DAFD0121D220015508E01021D0
:101D50002D4800F0D2FD0121D320015500E000BF45
:101D60004EE0092D4AD2DFE805F049050E1720297B
:101D7000313941004FF40061224800F0BCFD0020E1
:101D800084F8CC003BE04FF480611E4800F0B3FDC6
:101D90000021CD20015532E04FF40071194800F0C8
:101DA000AAFD0021CE20015529E04FF4807115488D
:101DB00000F0A1FD0021CF20015520E08021124834
:101DC00000F099FD0021D020015518E040210E4877
:101DD00000F091FD0021D120015510E020210A489A
:101DE00000F089FD0021D220015508E010210648AD
:101DF00000F081FD0021D320015500E000BF00BFAD
:101E000070BD000000080140000C01400EB500202C
:101E10000090019002900121084601F013F940F270
:101E2000E730ADF8040041F61F40ADF80000002097
:101E3000ADF80600ADF802008DF8080069464FF0D5
:101E4000804001F053FC0121880701F028FC0122A9
:101E50001146900701F040FC0EBD00000EB50020B9
:101E60000090019002900121022001F0EBF809207E
:101E7000ADF8040041F61F40ADF800000020ADF8B9
:101E80000600ADF802008DF808006946064801F02A
:101E90002DFC0121044801F002FC012211460248F8
:101EA00001F01AFC0EBD00000004004010B500F067
:101EB00005F8FFF7ABFFFFF7D1FF10BD08B5002015
:101EC00000904FF4A06000F045FE1D208DF800004A
:101ED00001208DF8010000208DF8020001208DF80E
:101EE0000300684600F0FEFD1C208DF80000002075
:101EF0008DF801008DF8020001208DF8030068467E
:101F000000F0F0FD08BD00BFFEE7000010B50021A5
:101F1000837A012202FA03F13D4A126842F001027B
:101F20003B4B1A603A4A1C3212688A43384B1C33C6
:101F30001A60027BCAB9364A0C3212688A43344BA3
:101F40000C331A604288C38842EA0343304A403265
:101F5000847A42F834300288838842EA03432C4A68
:101F60004032847A02EBC4025360027B012A19D109
:101F7000274A0C3212680A43254B0C331A604288F8
:101F8000038842EA0343224A4032847A42F83430DA
:101F9000C288838842EA03431D4A4032847A02EBB6
:101FA000C4025360C27A3AB9194A121D12688A43B0
:101FB000174B1B1D1A6006E0154A121D12680A43D2
:101FC000134B1B1D1A60028932B9114A1432126870
:101FD0008A430F4B14331A600289012A06D10C4A36
:101FE000143212680A430A4B14331A60427B012AE6
:101FF00006D1074A1C3212680A43054B1C331A608B
:10200000034A126822F00102014B1A6010BD000061
:10201000006600401AB143690B43436102E0436923
:102020008B434361704730B502460020002314689B
:1020300024F002041460146844F00104146000E009
:102040005B1C546804F001041CB94FF6FF74A342F2
:10205000F6D1546804F001040CB900206CE08C79CE
:10206000012C04D1146844F08004146003E0146867
:1020700024F080041460CC79012C04D1146844F05D
:102080004004146003E0146824F0400414600C7AE7
:10209000012C04D1146844F02004146003E0146897
:1020A00024F0200414604C7A012C04D1146844F00C
:1020B0001004146003E0146824F0100414608C7A97
:1020C000012C04D1146844F00804146003E014687F
:1020D00024F008041460CC7A012C04D1146844F074
:1020E0000404146003E0146824F0040414608C7881
:1020F000A407CD7844EA05640D7944EA05444D7996
:1021000044EA05540D886D1E2C43D461146824F0F4
:1021100001041460002300E05B1C546804F0010417
:102120001CB14FF6FF74A342F6D1546804F00104C9
:102130000CB1002000E0012030BD10B500F5D873CF
:1021400003EB01131B6803F004031372137A53B9F2
:1021500000F5D87303EB01131B6840F2FF7404EA27
:102160005353136009E000F5D87303EB01131B68A8
:102170006FF0604404EAD303536000F5D87303EBB7
:1021800001131B6803F00203537200F5D87303EBCD
:1021900001135B6803F00F03937200F5D87303EB30
:1021A00001135B681B0AD37400F5D87303EB0113AA
:1021B0009B68D37200F5D87303EB01139B681C0A6C
:1021C000147300F5D87303EB01139B681C0C547354
:1021D00000F5D87303EB01139B681B0E937300F596
:1021E000D87303EB0113DB68D37300F5D87303EBEB
:1021F0000113DB681C0A147400F5D87303EB011398
:10220000DB681C0C547400F5D87303EB0113DB6816
:102210001B0E937421B9C36843F02003C36003E02D
:10222000036943F02003036110BD10B5024600208E
:10223000936803F08063B3F1806F00D110E093687E
:1022400003F00063B3F1006F01D1012008E093684F
:1022500003F08053B3F1805F01D1022000E004203D
:10226000042874D002F5C07303EB00131B6803F05D
:10227000010402F5C07303EB00131C600B7A7BB9F9
:102280004B7A0C8843EA445302F5C07404EB001403
:102290002468234302F5C07404EB0014236010E0AB
:1022A0000B7A4C6843EAC4034C7A234302F5C074AA
:1022B00004EB00142468234302F5C07404EB0014FB
:1022C00023608B7A03F00F038B7202F5C07303EB6C
:1022D00000135B6823F00F0402F5C07303EB0013D7
:1022E0005C6002F5C07303EB00135B688C7A2343D8
:1022F00002F5C07404EB001463608B7B1C064B7BFF
:1023000044EA03440B7B44EA0323CC7A234302F5DB
:10231000C07404EB0014A3608B7C1C064B7C44EA65
:1023200003440B7C44EA0323CC7B234302F5C074B3
:1023300004EB0014E36002F5C07303EB00131B68A9
:1023400043F0010402F5C07303EB00131C6010BDE1
:1023500010B50246002321B1012907D002290FD16F
:1023600009E090681D4C00EA04030BE090681C4CE7
:1023700000EA040306E090681A4C00EA040301E056
:10238000002300BF00BF184C181BA34216D007DC67
:1023900083B16FF08060184470B1022818D111E049
:1023A000B0F5007F10D0114C204448B1B0F5003F8B
:1023B0000ED10BE002230DE000230BE0002309E027
:1023C000002307E0012305E0012303E0012301E0EE
:1023D000002300BF00BFD8B210BD000003000004FE
:1023E0000003000800000310000100080001FFF7CF
:1023F00010B5022000F01CF900284BD0012000F09D
:1024000057F825480068642825D22448007810B37E
:1024100000202349087014E022482149097850F827
:10242000210021491E4A127831F8121008441D4932
:102430001B4A127841F8220019480078401C1849BC
:102440000870174800780928E6DB13480068401C2C
:10245000114908601EE01048006864281AD1002065
:102460000F49087012E00F480D49097850F8210013
:102470006421B0FBF1F081B20C48094A127820F8CF
:10248000121007480078401C05490870044800787D
:102490000928E8DB10BD00001C0000201A00002005
:1024A000200000209C020020780200208A020020E8
:1024B00000F0805111B10349086001E00249486011
:1024C00070470000040402400000024021B102688D
:1024D00042F00102026004E002684FF6FE731A4007
:1024E0000260704701684FF6FE72114001600021E2
:1024F000016041608160C1604B49884208D14A490E
:102500000839496841F00F01474A083A51608AE0AA
:1025100045491431884208D143490839496841F096
:10252000F001414A083A51607DE03F492831884234
:1025300008D13D490839496841F470613A4A083A7E
:10254000516070E038493C31884208D13649083939
:10255000496841F47041344A083A516063E03249B5
:102560005031884208D130490839496841F4702116
:102570002D4A083A516056E02B496431884208D10F
:1025800029490839496841F47001274A083A5160DD
:1025900049E025497831884208D1234908394968FA
:1025A00041F07061204A083A51603CE01F4988427E
:1025B00006D1011F096841F00F01021F116032E0CE
:1025C0001A491431884208D11849091F096841F095
:1025D000F001164A121F116025E014492831884283
:1025E00008D11249091F096841F470610F4A121F8E
:1025F000116018E00D493C31884208D10B49091F90
:10260000096841F47041094A121F11600BE0074943
:102610005031884207D10549091F096841F47021EA
:10262000024A121F1160704708000240080402406D
:1026300001460020002201F0805313B1054B1A68B7
:1026400001E0054B1A6802EA01030BB1012000E02A
:102650000020704700040240000002401AB10368E5
:102660000B43036002E003688B430360704710B5BF
:102670000022026847F6F0739A430C6A8B68234382
:102680000C6923434C6923438C692343CC6923435E
:102690004C6A23438C6A23431A430260CB6843602D
:1026A0000B6883604B68C36010BD704710B56FF056
:1026B000040000F00DFE0A4800680A49B0FBF1F082
:1026C000094908700846007800EB4001C1EBC010D2
:1026D0004FF6FF7101EAC0000449088010BD0000F8
:1026E0000000002000127A0040000020420000207C
:1026F0000146114A12884A434FF0E0235A610022F2
:102700009A611A46126942F001021A6100BF4FF045
:10271000E022106900F001021AB100F48032002AB0
:10272000F5D04FF0E022126922F001024FF0E023D1
:102730001A6100229A617047420000202DE9F041A1
:10274000024600250026002000230024002791F8DF
:1027500003C00CF00F0591F803C00CF0100CBCF195
:10276000000F03D091F802C04CEA050591F800C0B3
:10277000BCF1000F31D0146800202BE04FF0010CA9
:102780000CFA00F3B1F800C00CEA03069E4220D117
:1027900083004FF00F0C0CFA03F7BC4305FA03FC5F
:1027A0004CEA040491F803C0BCF1280F06D14FF0A5
:1027B000010C0CFA00FCC2F814C00AE091F803C046
:1027C000BCF1480F05D14FF0010C0CFA00FCC2F827
:1027D00010C0401C0828D1D31460B1F800C0BCF16F
:1027E000FF0F34DD546800202EE000F1080C4FF09C
:1027F000010808FA0CF3B1F800C00CEA03069E4287
:1028000021D183004FF00F0C0CFA03F7BC4305FAFB
:1028100003FC4CEA040491F803C0BCF1280F05D175
:1028200000F1080C08FA0CF8C2F8148091F803C003
:10283000BCF1480F07D100F1080C4FF0010808FA6D
:102840000CF8C2F81080401C0828CED35460BDE8B4
:10285000F0810000F0B50A46002300240021002585
:1028600000F00046B6F1004F02D11D4EF16901E0C3
:102870001B4E7168C0F3034583B200F44016B6F5F1
:10288000401F08D121F07061154E766826F0706601
:10289000134F7E6012E000F48016B6F5801F06D15B
:1028A000032606FA05F4A14341F0706106E0460DE7
:1028B000360103FA06F6B14341F0706122B1460DCC
:1028C000360103FA06F6314300F00046B6F1004F38
:1028D00002D1034EF16101E0014E7160F0BD0000D4
:1028E000000001400246002093680B400BB101201C
:1028F00000E000207047416170470161704710B5EA
:1029000088B00346002007901CE01846FEF748FEFA
:1029100000BF1846FEF7B5FD0028FAD11846FEF7AD
:102920004FFE00BF1846FEF7A2FD0028FAD1D86C72
:1029300001A99DF81C2021F812009DF81C00401CE4
:10294000C0B207909DF81C000A28DEDB002007902B
:1029500035E00020069029E001A89DF8181030F815
:10296000111001AA9DF81800401C32F81000814295
:1029700017DD01A89DF8181030F81100009001A98A
:102980009DF81800401C31F810009DF8182021F81F
:102990001200BDF8001001AA9DF81800401C22F892
:1029A00010109DF81800401CC0B206909DF8180049
:1029B0000928D1DB9DF81C00401CC0B207909DF88F
:1029C0001C000A28C5DB0020009007900FE001A939
:1029D0009DF81C00801C31F81000BDF80010084460
:1029E00080B200909DF81C00401CC0B207909DF87A
:1029F0001C000628EBDBBDF80000062190FBF1F07F
:102A0000BDF80010062291FBF2F402FB1411032220
:102A100091FBF2F1084480B20090BDF8000000B2D2
:102A2000C0F5006000B208B010BD00BFFEE70000B6
:102A300010B54FF480410C48FFF75FFF4FF4005191
:102A40000948FFF75AFF00F041F84FF4804106486B
:102A5000FFF751FF00F03AF84FF400510248FFF73A
:102A60004AFF00F033F810BD000C014010B54FF4E0
:102A700080410848FFF73FFF4FF400510548FFF73A
:102A80003CFF00F023F84FF480410248FFF735FF88
:102A900010BD0000000C014010B54FF480410A4801
:102AA000FFF72BFF00F012F84FF400510648FFF734
:102AB00024FF00F00BF84FF400510348FFF71BFF11
:102AC00000F004F810BD0000000C01400A2000BF17
:102AD000011EA0F10102D0B2FAD1704700BFFEE79B
:102AE0007047000070B5002100230F22C47804B3A2
:102AF000154C246804F4E064C4F5E064210AC1F1D3
:102B00000403CA40447804FA03F184781440214352
:102B100009010E4C0678A155047804F01F05012424
:102B2000AC4005786D11AD0005F1E025C5F8004118
:102B300009E0047804F01F050124AC40044D067838
:102B4000761145F8264070BD0CED00E000E400E091
:102B500080E100E002490143024A11607047000031
:102B60000000FA050CED00E070B500240CE0002533
:102B700006E00020074901EB85010855681CC5B235
:102B8000782DF6DB601CC4B2042CF0DB00F026F9D3
:102B900070BD00005800002010B504461CB900218B
:102BA000A62000F016FA012C03D10021A72000F086
:102BB00010FA10BD10B5044694B9082013490870E6
:102BC0000021D32000F005FA0021122000F001FAC4
:102BD0000021C82000F0FDF90021A02000F0F9F943
:102BE000012C12D10020094908700021D32000F0E7
:102BF000F0F900212E2000F0ECF90021C02000F0B7
:102C0000E8F90021A12000F0E4F910BD1400002033
:102C1000F0B514460B46CF1701EB5777C7F3C70241
:102C2000CF1701EB5777FF10A1EBC707FEB20123C7
:102C3000B340DDB24CB1134B03EB80039B5C2B43E1
:102C4000104F07EB8007BB541AE00E4B03EB8003D9
:102C50009B5CDB430B4F07EB8007BB54094B03EB3B
:102C600080039B5C2B43074F07EB8007BB54054B4E
:102C700003EB80039B5CDB43024F07EB8007BB54F5
:102C8000F0BD00005800002008B500200090012190
:102C9000082000F0E7F94FF46040ADF80000102084
:102CA0008DF8030003208DF8020069464A48FFF7BB
:102CB00045FD4FF400514848FFF71DFE4FF4804199
:102CC0004548FFF718FE4FF400414348FFF713FE55
:102CD0004FF400414048FFF70EFEC820FFF708FD03
:102CE0004FF400413C48FFF708FE0021AE2000F001
:102CF00070F90021A82000F06CF900211B2000F0E1
:102D000068F90021AD2000F064F90021402000F0B6
:102D100060F90021D32000F05CF90021122000F0BE
:102D200058F90021A02000F054F90021C82000F03B
:102D300050F90021A62000F04CF90021402000F0BD
:102D400048F90021A42000F044F90021812000F07E
:102D500040F90021302000F03CF90021D92000F09A
:102D600038F90021222000F034F90021D52000F0AC
:102D700030F90021412000F02CF90021DA2000F088
:102D800028F90021102000F024F90021202000F073
:102D900020F90021022000F01CF90021DB2000F0C6
:102DA00018F90021302000F014F900218D2000F0E6
:102DB00010F90021522000F00CF90021082000F049
:102DC00008F90021102000F004F9FFF7CDFE0021E2
:102DD000AF2000F0FEF808BD000C014070B50024E3
:102DE0002CE004F1B001C8B2002100F0F2F815495E
:102DF0000878002100F0EDF80021102000F0E9F83B
:102E0000FFF716FE782000F0C5F9FFF745FE4020D9
:102E100000F0C0F9FFF740FE002509E00A4901EB88
:102E20008501085D00F0B6F9FFF736FE681CC5B2F3
:102E3000782DF3DBFFF71AFE601CC4B2042CD0DB44
:102E400070BD000014000020580000202DE9FE4F46
:102E50000746884692461C460197CDF80080082C0C
:102E600002D14FF006091FE02046E31704EB53732D
:102E7000DB1021464FEAE47C04EB5C7C4FEAEC0C6F
:102E8000A4EBCC0CBCF1000F02D04FF0010C01E020
:102E90004FF0000C6344224604EBD27C4FEA6C0CEA
:102EA00003FB0CF303F0FF09AAF12000C6B20025D2
:102EB0005EE0082C07D106EB46002F4901EB4000ED
:102EC00010F805B01DE00C2C07D106EB46002B498D
:102ED00001EB800010F805B013E0102C05D1284854
:102EE00000EB061010F805B00BE0182C07D106EB2C
:102EF000C600244901EB800010F805B001E0BDE8F0
:102F0000FE8F002002901CE00BF0010028B141462A
:102F100038460C9AFFF77CFE09E00C9808B90120AE
:102F200000E00020024641463846FFF771FE4FEAB6
:102F30006B0B08F1010000F0FF080298401CC0B2C2
:102F4000029002980828DFDB781CC7B2082C0BD04F
:102F500004EBD4714A100199791A8A4204D1019F75
:102F600000980830C0B20090DDF80080681CC5B23F
:102F70004D459EDB00BFC2E7F03D00081840000849
:102F80008C4400087C4A00082DE9F84106460F46AB
:102F900014461D46DDF81C8013E0CDF80080227831
:102FA0002B4639463046FFF751FF082D02D1B01DA0
:102FB000C6B205E0284605EBD07106EB6101CEB242
:102FC000641C2078202802DB20787E28E5DDBDE81F
:102FD000F88170B505460C46FFF72AFD782000F011
:102FE000D9F8FFF759FD1CB1402000F0D3F802E0FA
:102FF000002000F0CFF8FFF74FFD284600F0CAF898
:10300000FFF74AFDFFF732FD70BD70470146002013
:10301000034A506820F44040084350607047000065
:103020000010024029B1064A52690243044B5A611A
:1030300004E0034A52698243014B5A617047000021
:103040000010024029B1064AD2690243044BDA61FA
:1030500004E0034AD2698243014BDA617047000001
:103060000010024029B1064A92690243044B9A615A
:1030700004E0034A92698243014B9A617047000061
:103080000010024029B1064AD2680243044BDA60BC
:1030900004E0034AD2688243014BDA6070470000C3
:1030A0000010024030B50021002200240023324DE0
:1030B0006D6805F00C0121B1042905D008292CD137
:1030C00005E02E4D05602BE02C4D056028E02A4DD3
:1030D0006D6805F47012284D6D6805F48034022582
:1030E00005EB924264B9264D2D6805F010051DB11F
:1030F000224D554305600FE0224D554305600BE01E
:103100001D4D6D6805F400351DB11E4D554305601C
:1031100002E01A4D5543056002E0184D056000BFFE
:1031200000BF154D6D6805F0F0010909164D6B5C87
:103130000568DD404560104D6D6805F4E061090AE1
:10314000114D6B5C4568DD4085600B4D6D6805F485
:103150006051C90A0C4D6B5C4568DD40C560064D89
:103160006D6805F44041890B084D6B5CC568B5FB83
:10317000F3F5056130BD00000010024000127A0036
:103180000038024000093D004400002054000020A7
:103190007047000070B5044600251FE004F0800071
:1031A00028B14FF480410F48FFF7A7FB04E04FF42C
:1031B00080410C48FFF79FFBFFF788FC4FF400515C
:1031C0000848FFF79AFBFFF781FC4FF400510548D0
:1031D000FFF791FB6006040E681CC5B2082DDDDB0D
:1031E00070BD0000000C014010B500F001F810BDEA
:1031F0000CB50020019000903348006840F4803006
:103200003149086000BF3048006800F40030009089
:103210000198401C0190009818B90198B0F5A06F72
:10322000F1D12948006800F4003010B1012000906D
:1032300001E0002000900098012843D12348006855
:1032400040F01000214908600846006820F00300A3
:1032500008600846006840F0020008601A484068AC
:10326000194948600846406848600846406840F48C
:10327000806048600846406820F47C10486008463A
:10328000406840F4E81048600846006840F08070EC
:10329000086000BF0C48006800F000700028F9D0FA
:1032A0000948406820F00300074948600846406824
:1032B00040F00200486000BF0348406800F00C0086
:1032C0000828F9D10CBD0000001002400020024087
:1032D000042808D14FF0E021096941F004014FF0C2
:1032E000E022116107E04FF0E021096921F00401BB
:1032F0004FF0E022116170477047000010B513488D
:10330000006840F001001149086008464068104913
:1033100008400E494860084600680E4908400B49BD
:1033200008600846006820F480200860084640686D
:1033300020F4FE0048604FF41F008860FFF754FF40
:103340004FF000600449086010BD0000001002400A
:103350000000FFF8FFFFF6FE08ED00E07CB501215C
:10336000880700F0A8F9002870D00121880700F034
:1033700093F969480078062869D2DFE800F0031C59
:10338000354E69786549086800F05EFBCDE90001BB
:103390006348028863A16948FCF734FF5F494868C5
:1033A00000F052FBCDE900015D48428864A16A4803
:1033B000FCF728FF6BE05949886800F045FBCDE930
:1033C00000015748828865A15C48FCF71BFF534900
:1033D000C86800F039FBCDE900015148C28865A1F9
:1033E0005D48FCF70FFF52E04C49086900F02CFBE8
:1033F000CDE900014A48028964A15048FCF702FF68
:103400004649486900F020FBCDE900014448428963
:1034100064A15148FCF7F6FE39E04049886900F0A4
:1034200013FBCDE900013E48828964A14348FCF7C3
:10343000E9FE3A49C86900F007FBCDE900013848C8
:10344000C28964A14448FCF7DDFE20E062E01DE093
:1034500066484388028866A13848FCF7D3FE634873
:10346000C388828868A13C48FCF7CCFE0FE05F4827
:10347000438902896AA13148FCF7C4FE5B48C389CD
:1034800082896DA13448FCF7BDFE00E000BF00BF9B
:103490002249086A00F0D8FACDE900015348038AAE
:1034A0001F48028A6AA16F48FCF7ACFE6E480068AC
:1034B000401C6D490860084600681421B0FBF1F219
:1034C00001FB120060B914480078401C12490870D2
:1034D00008460078052803DD00200870624908606E
:1034E00001200823154A002100900846FFF74CFDF3
:1034F00001200823184A194600900020FFF744FDD8
:1035000001200823574A102100900020FFF73CFDBE
:10351000FFF764FC7CBD00002C0000201C03002091
:10352000780200204348313A25346420665F4348DE
:10353000313A252E3266202000000000C002002013
:103540004348323A25346420665F4348323A252E98
:103550003266202000000000DE0200204348333A9B
:1035600025346420665F4348333A252E3266202096
:10357000000000004348343A25346420665F434825
:10358000343A252E32662020000000004348353AA8
:1035900025346420665F4348353A252E3266202064
:1035A000000000004348363A25346420665F4348F3
:1035B000363A252E32662020000000004348373A74
:1035C00025346420665F4348373A252E3266202032
:1035D000000000004348383A25346420665F4348C1
:1035E000383A252E32662020000000008A02002092
:1035F0004F313A253464204F323A2534642020205C
:1036000020202020000000004F333A253464204F52
:10361000343A25346420202020202020000000009F
:103620004F353A253464204F363A25346420202023
:1036300020202020000000004F373A253464204F1E
:10364000383A25346420202020202020000000006B
:10365000566F6C3A25346420253264202025322EA2
:1036600032660000FC0200203000002010B501216D
:10367000064800F020F838B10121044800F00CF8A9
:1036800003490448FEF700FA10BD000000040040A2
:103690001C03002078020020CA430282704721B137
:1036A000028842F00102028004E002884FF6FE73B5
:1036B0001A400280704730B50246002000230024E3
:1036C000158A05EA0103958905EA010413B10CB1D5
:1036D000012000E0002030BD1AB183890B438381B3
:1036E00002E083898B4383817047000000220288B7
:1036F000114B984208D0B0F1804F05D00F4B984243
:1037000002D00F4B984204D14FF68F731A404B886A
:103710001A434FF6FF431A40CB881A4302808B8826
:1037200083850B880385044B984201D10B7A03866D
:103730000123838270470000002C014000040040F8
:103740000008004021B1828942F40052828104E0E5
:1037500082894DF6FF731A4082817047024600202D
:1037600013880B400BB1012000E0002070470000DF
:103770002DE9F04786B005460E460024A24600BF5C
:10378000A14600272F462C8A4CF6FF700440F08893
:1037900004432C82AC894EF6F3100440B088318982
:1037A0000843718908430443AC81AC8A4FF6FF405B
:1037B0000440B0890443AC8201A8FFF773FC1F48A2
:1037C000874202D1DDF810A001E0DDF80CA0A88945
:1037D00000F4004040B10AEBCA0000EB0A10316867
:1037E0004900B0FBF1F807E00AEBCA0000EB0A1051
:1037F00031688900B0FBF1F86420B8FBF0F00401F7
:103800002009642101FB1089A88900F4004040B11F
:10381000322000EBC900B0FBF1F000F007000443D8
:1038200008E0322000EB09106421B0FBF1F000F059
:103830000F0004432C8106B0BDE8F087003801403A
:1038400010B586B0044601218804FFF7FBFB012177
:103850000820FFF707FC4FF48060ADF81400032048
:103860008DF8160018208DF8170005A90C48FEF7F2
:1038700065FF01940020ADF80800ADF80A00ADF82E
:103880000C00ADF810000820ADF80E0001A90548A5
:10389000FFF76EFF01210348FFF754FF06B010BD8C
:1038A000000C014000480040C1F3080282807047CC
:1038B00010B586B00024142101A8FCF7A2FD01AACE
:1038C00000210A48FEF739FC00BF06E00DF10F00A9
:1038D000005D07490855601CC4B2082CF6DB0821BE
:1038E0000348FEF70DF806B010BD0000006400406C
:1038F0003400002000BFFEE7490050EAC12018BF95
:1039000004204A0D18BF40F0010040F2FF72B2EBF4
:10391000515F08BF40F00200012808BF0520704732
:1039200030380A2801D2012070470020704700007B
:1039300070B504460D4600BF40210548FFF70EFF55
:103940000028F9D0E1B20248FFF7AEFF204670BD73
:103950000048004008B54FF4A060FFF7FBF8FEF701
:10396000A5FE4FF4E130FFF76BFF1C4801681CA077
:10397000FCF73CFC1EA0FCF739FC4FF47A70FEF714
:10398000B7FEFFF781F90020FFF706F90120FFF7E6
:1039900011F9FFF7E9F8012018231AA2002100907D
:1039A0000846FFF7F1FAFFF719FA4FF47A70FEF7BD
:1039B0009FFEFDF7F5FFFEF74BF9FDF7AFFEFDF7B4
:1039C00051FFFEF773FAFFF7CFF84FF47A70FEF766
:1039D0008FFE02E0FA20FEF78BFEFBE700000020DE
:1039E00053797374656D436C6B3A25640D0A00005E
:1039F0004750494F20546F67676C652054455354B6
:103A00000D0A00004F4C454420544553540000001B
:103A100010B500290AD00878002807D00548784456
:103A2000FDF7E4F8002801D0002010BD02487844DA
:103A300010BD0000962200008E2200000808A0F5AC
:103A400000114FEA3101704743004FEAD30C4FEAAF
:103A50003C0C43401FBF40070CF1605113F0FE4F78
:103A600070471CF0006F03D100200CF0004170473C
:103A70000CF0004343EA507010B540EACC0000F06F
:103A80006AF900BF000000924FEA0001FFF7D6BFBD
:103A90004FF000414FF00000A1F5002170470000F9
:103AA0004FF47F0C1CEAD0121EBF1CEAD11392EA1D
:103AB0000C0F93EA0C0F00F0858090EA010F48BFCD
:103AC00042F4807240F4000C41F400002CF07F417D
:103AD00020F07F4000B58142A2EB03020FF2081CE8
:103AE000ACEB504EC0F100009EF800E04FEA4E0EE5
:103AF00000FB0EFC38BF49004FEA2C1C02F5FA020D
:103B00000CFB0EF34FEACE1E4FEA112C4FEAC121F7
:103B10000EEB635E42EB22420EFB0CFC4FEA1C53A1
:103B200000FB03114FEA112C4FEA01310EFB0CFC94
:103B30004FEADC4C00FB0C11C14228BF09184CEBCA
:103B400003335DF804EB10EB410143EBC250B2F5D7
:103B50007C0F38BF704729D512F0F00F1CBF00F161
:103B6000C04000F0004070470081828384858687D2
:103B700088898B8C8D8E8F919293959697999A9C2C
:103B80009D9FA0A2A3A5A7A8AAACAEB0B2B3B5B79B
:103B9000B9BCBEC0C2C5C7C9CCCED1D4D7D9DCDF71
:103BA000E2E6E9ECF0F3F7FAFE0000004FEA400C21
:103BB0000CF1807CBCF17E4F28BF7047B0F1C04053
:103BC00000F00FB990EA010F0CEAD11348BF42F49C
:103BD0008072624538BF634507D213F47F0F16D059
:103BE00080EA010000F00040704710B500F0B3F823
:103BF000097EFC3E00F005B880EA010000F00040BC
:103C0000704780EA010000F0004000F0EAB812F4CA
:103C10007F0F04BF0248704780EA010000F0E1B85E
:103C20000000C07F10F0004148BF4042B0FA80F36E
:103C300010FA03F2C3F19D030BD051EAC35101EB1B
:103C40001220530638BF704700F1010008BF20F072
:103C5000010070474FF47F0C1CEAD0121EBF1CEA13
:103C6000D11392EA0C0F93EA0C0F00F0478090EA10
:103C7000010F48BF42F480724FF0004C4CEA002024
:103C80004CEA012102EB0302A0FB0113A2F50002A2
:103C9000002918BF43F001035B0028BF4FEA33033C
:103CA00042EB22425FEA132C4CEBC2502EBFBCEB1E
:103CB000436FB2F57C0F70474FEA036CBCF1004FC5
:103CC00008BF20F00100B2F57C0F38BF70470BD55C
:103CD00082F0FF0212F5803FC8BF704700F1C0407C
:103CE000D8BF00F00040704700F5000C5FEA4C0CB4
:103CF00048BF7047B0F1C04000F073B890EA010FC0
:103D00000CEAD11348BF42F48072624538BF634564
:103D100004D280EA010000F00040704710B500F0C6
:103D20001AF800BF8900013E00F007B800F009B89A
:103D30005FEA410C5FEA1C6C08D080EA010000F0E9
:103D400050B85FEA400C5FEA1C6CF6D14FF00040BF
:103D5000A0F5800070470EF1020E2EF0030E5EF803
:103D6000044B244204D44FEA4102B2F17F4F11D8F0
:103D70004FEA4003B3F17F4F0CD80ED14FEAD07C0D
:103D8000B2F17F4F0CEB4C0C0CF1020C08BF4CEB6A
:103D9000D17C04E04FF0080C01E04FEAD17C0CEB41
:103DA0004C0324FA03F404F00704B4F1040C06D223
:103DB0000EEB840CBDE810404CF0010C6047DFE8CE
:103DC0000CF0070802024FF00040A0F5800010BD83
:103DD0000846420018BFD2F1807288BF00F0004050
:103DE00010BDFF2141EAD050C0057047FCF765BC0B
:103DF0000000000000000000002F0000000007008D
:103E0000070000147F147F1400242A7F2A12006206
:103E100064081323003649552250000005030000B2
:103E200000001C224100000041221C000014083E3A
:103E300008140008083E0808000000A06000000800
:103E40000808080800006060000000201008040254
:103E5000003E5149453E0000427F40000042615112
:103E60004946002141454B31001814127F100027AC
:103E700045454539003C4A4949300001710905036F
:103E800000364949493600064949291E00003636A0
:103E90000000000056360000000814224100001403
:103EA00014141414000041221408000201510906E0
:103EB00000324959513E007C1211127C007F494961
:103EC0004936003E41414122007F4141221C007F92
:103ED00049494941007F09090901003E4149497AA0
:103EE000007F0808087F0000417F4100002040411A
:103EF0003F01007F08142241007F40404040007F86
:103F0000020C027F007F0408107F003E4141413EC9
:103F1000007F09090906003E4151215E007F091911
:103F200029460046494949310001017F0101003F0E
:103F30004040403F001F2040201F003F4038403F8E
:103F400000631408146300070870080700615149F2
:103F5000454300007F41410000552A552A55000085
:103F600041417F0000040201020400404040404003
:103F7000000001020400002054545478007F48449B
:103F8000443800384444442000384444487F0038D2
:103F90005454541800087E0901020018A4A4A47CFB
:103FA000007F080404780000447D400000408084C5
:103FB0007D00007F102844000000417F4000007C0D
:103FC00004180478007C0804047800384444443819
:103FD00000FC242424180018242418FC007C080465
:103FE000040800485454542000043F444020003C3E
:103FF0004040207C001C2040201C003C4030403CC5
:10400000004428102844001CA0A0A07C0044645454
:104010004C44141414141414000000000000000098
:10402000000000000000FC00000000000200000092
:10403000000C020C020000000000000090D0BCD078
:10404000BC900003000300001824FE448C0003020F
:10405000070201001824D8B04C80000300010201BF
:10406000C038E438E0000102020102020806000044
:104070000000000000000000000000F80402000042
:1040800000010204000204F8000000040201000024
:104090009060F86090000000010000002020FC20EB
:1040A00020000000010000000000000000000806E1
:1040B0000000000020202020200000000000000060
:1040C0000000000000000002000000000080601CF2
:1040D0000200040300000000F8040404F8000102D8
:1040E000020201000008FC000000000203020000C0
:1040F0001884442418000302020202000804242445
:10410000D80001020202010040B088FC80000000DB
:10411000000302003C242424C40001020202010026
:10412000F824242CC0000102020201000C04E41C4B
:104130000400000003000000D8242424D800010259
:104140000202010038444444F80000030202010066
:10415000000010000000000002000000000020002D
:10416000000000000600000000205088040200004B
:10417000000001029090909090000000000000006C
:104180000002048850200002010000001804C4242A
:104190001800000002000000F804E494F800010296
:1041A0000202020000E09CF0800002030000030213
:1041B00004FC2424D800020302020100F8040404D1
:1041C0000C0001020202010004FC0404F8000203D6
:1041D0000202010004FC24740C000203020203002A
:1041E00004FC24740C00020302000000F0080444E4
:1041F000CC4000010202010004FC2020FC04020368
:10420000000003020404FC04040002020302020092
:10421000000404FC040406040403000004FC24D08D
:104220000C0402030200030204FC04000000020369
:1042300002020203FC3CC03CFC000300030003003C
:1042400004FC30C4FC04020302000300F80404046C
:10425000F80001020202010004FC242418000203F9
:1042600002000000F8848404F8000102020705003F
:1042700004FC24649800020302000302182424446E
:104280008C000302020201000C04FC040C0000027A
:104290000302000004FC0000FC0400010202010013
:1042A000047C80E01C040000030000001CE03CE0F3
:1042B0001C00000300030000049C609C0400020337
:1042C00000030200041CE01C0400000203020000C2
:1042D0000C84641C04000203020203000000FE02BE
:1042E0000200000007040400000E30C000000000BF
:1042F00000010200000202FE0000000404070000AA
:1043000000040204000000000000000000000000A3
:10431000000008080808080800000200000000006B
:10432000000000000040A0A0C00000010202030243
:1043300004FC2020C00000030202010000C0202075
:10434000600000010202020000C02024FC00000105
:104350000202030200C0A0A0C0000001020202008D
:104360000020F82424040002030202000040A0A060
:10437000602000070A0A0A0404FC2020C00002038F
:10438000020003020020E40000000002030200001B
:10439000000020E4000008080807000004FC80E09A
:1043A00020200203020003020404FC0000000202B9
:1043B00003020200E020E020C0000300030003002D
:1043C00020E02020C00002030200030200C02020E1
:1043D000C00000010202010020E02020C000080F00
:1043E0000A02010000C02020E0000001020A0F08BC
:1043F00020E0402020000203020000000060A0A096
:1044000020000002020203000020F820000000004B
:104410000102020020E00020E0000001020203028D
:1044200020E0208060200000030100006080E08028
:104430006000000300030000206080602000020391
:104440000003020020E0208060200808070100002F
:104450000020A0602000000203020200000020DE15
:104460000200000000070400000000FF0000000040
:10447000000F00000002DE20000000040700000022
:10448000020102040402000000000000000000001D
:10449000000000000000000000000000000000F824
:1044A00000000000000000333000000000100C0687
:1044B000100C0600000000000000000040C0784022
:1044C000C0784000043F04043F040400007088FCEE
:1044D00008300000001820FF211E0000F008F00046
:1044E000E018000000211C031E211E0000F00888B7
:1044F000700000001E2123241927211010160E0021
:10450000000000000000000000000000000000E0CB
:1045100018040200000000071820400000020418E0
:10452000E00000000040201807000000404080F03C
:10453000804040000202010F01020200000000F072
:10454000000000000101011F010101000000000046
:104550000000000080B070000000000000000000BB
:104560000000000000010101010101010000000044
:1045700000000000003030000000000000000000DB
:1045800080601804006018060100000000E01008B8
:104590000810E000000F102020100F00001010F88D
:1045A000000000000020203F2020000000700808CC
:1045B000088870000030282422213000003008884C
:1045C000884830000018202020110E000000C02074
:1045D00010F8000000070424243F240000F8088895
:1045E000880808000019212020110E0000E0108822
:1045F00088180000000F112020110E000038080854
:10460000C83808000000003F000000000070880863
:1046100008887000001C222121221C0000E01008E4
:104620000810E0000000312222110F00000000C03D
:10463000C0000000000000303000000000000080DA
:1046400000000000000080600000000000008040CA
:1046500020100800000102040810200040404040E3
:104660004040400004040404040404000008102036
:10467000408000000020100804020100007048087B
:104680000808F0000000003036010000C030C828E3
:10469000E810E0000718272423140B000000C0389E
:1046A000E0000000203C23020227382008F8888818
:1046B00088700000203F202020110E00C030080824
:1046C00008083800071820202010080008F80808FB
:1046D0000810E000203F202020100F0008F88888F4
:1046E000E8081000203F20202320180008F88888C0
:1046F000E8081000203F200003000000C030080838
:104700000838000007182020221E020008F80800C0
:104710000008F808203F210101213F20000808F887
:10472000080800000020203F2020000000000808AA
:10473000F8080800C08080807F00000008F888C06A
:1047400028180800203F20012638200008F808001B
:1047500000000000203F20202020300008F8F80052
:10476000F8F80800203F003F003F200008F830C064
:104770000008F808203F200007183F00E010080854
:104780000810E0000F10202020100F0008F8080883
:104790000808F000203F210101010000E010080896
:1047A0000810E0000F18242438504F0008F88888BB
:1047B00088887000203F2000030C3020007088089B
:1047C000080838000038202121221C00180808F8A9
:1047D000080818000000203F2000000008F808002A
:1047E0000008F808001F202020201F0008788800FB
:1047F00000C83808000007380E010000F80800F86B
:104800000008F800033C0700073C03000818688014
:104810008068180820302C03032C30200838C8008A
:10482000C83808000000203F2000000010080808D9
:10483000C83808002038262120201800000000FE7B
:10484000020202000000007F40404000000C30C027
:1048500000000000000000010638C0000002020253
:10486000FE000000004040407F0000000000040205
:104870000202040000000000000000000000000030
:104880000000000080808080808080800002020420
:104890000000000000000000000000000000808018
:1048A000808000000019242222223F2008F8008086
:1048B00080000000003F112020110E000000008049
:1048C00080800000000E11202020110000000080D8
:1048D0008088F800000E112020103F20000080800A
:1048E00080800000001F222222221300008080F01E
:1048F000888888180020203F202000000000808049
:1049000080808000006B94949493600008F800808D
:1049100080800000203F210000203F2000809898E8
:10492000000000000020203F202000000000008048
:104930009898000000C08080807F000008F8000088
:1049400080808000203F24022D302000000808F8DD
:10495000000000000020203F202000008080808098
:1049600080808000203F20003F20003F808000802A
:1049700080800000203F210000203F200000808038
:1049800080800000001F202020201F0080800080E9
:104990008000000080FFA12020110E000000008098
:1049A00080808000000E112020A0FF808080800089
:1049B0008080800020203F212000010000008080B6
:1049C000808080000033242424241900008080E0AB
:1049D000808000000000001F202000008080000078
:1049E00000808000001F202020103F208080800059
:1049F0000080808000010E30080601008080008069
:104A0000008080800F300C030C300F00008080008D
:104A1000808080000020312E0E31200080808000B8
:104A20000080808080818E70180601000080808068
:104A3000808080000021302C222130000000000006
:104A4000807C020200000000003F404000000000A7
:104A5000FF00000000000000FF0000000002027CD8
:104A6000800000000040403F0000000000060101FF
:104A7000020204040000000000000000000000002A
:104A80000000000000000000000000000000000026
:104A90000000000000000000000000000000000016
:104AA0000000000000F0F0F0000000000000000036
:104AB00000017F010000000000000000001C1C1C21
:104AC0000000000000008060301C8C60301C0C0076
:104AD00000000000000000000000000000000000D6
:104AE0000000000000000000000000E000000000E6
:104AF00000E000000086E69F86868686E69F8600A8
:104B000000011F01010101011F010100000080C01F
:104B10006020F820E0C00000000003070C18FF70C0
:104B2000E18100000000070F10107F100F07000048
:104B30008060206080000000E02000000F30203006
:104B40009F70DC371030C0000000100E0300071803
:104B5000101807000000C02020E0C0000000000086
:104B600080E01F38E88703C43C040000070F1810DA
:104B7000100B070D1010080000808C4C380000004E
:104B80000000000000000000000000000000000025
:104B90000000000000000000000000000000000015
:104BA000000080E0300804000000000000FEFF016B
:104BB00000000000000000000000030F182040006B
:104BC00000040830E0800000000000000000000049
:104BD00001FFFE0000000000004020180F0300004D
:104BE00000000000000000000000C0000000000005
:104BF000004266663C18FF183C66664200000000F2
:104C00000000030000000000000000000000800021
:104C100000000000001010101010FF1010101010F5
:104C20000000000000000300000000000000000081
:104C30000000000000000000000000000000000074
:104C40000000000000808C4C3800000000000000D4
:104C50000000000000000000000000000010101024
:104C600010101010101010000000000000000000D4
:104C70000000000000000000000000000000000034
:104C800000000000000000000000000000001C1CEC
:104C90001C000000000000000000000000000000F8
:104CA000E0380C000000000080701C0300000000D1
:104CB0000060380E0100000000000000000080C00D
:104CC00060202060C080000000FEFF0100000000A6
:104CD00001FFFE000001070E181010180E0701005A
:104CE0000000808080C0E0000000000000000000A4
:104CF00000FFFF000000000000001010101F1F1038
:104D0000101000000080402020202060C0800000A3
:104D100000030300804020381F070000001C1A1900
:104D200018181818181F00000080C020202060C02C
:104D300080000000000303001010182FE78000001F
:104D400000070F10101010180F07000000000000DF
:104D50000000C0E0F000000000C0B088868180FF45
:104D6000FF808000000000000010101F1F101000C6
:104D70000000E060606060606060000000003F1064
:104D800008080818F0E0000000070B101010101CB5
:104D90000F030000000080C040202020E0C0000081
:104DA00000FCFF211008080818F0E0000001070CC3
:104DB00018101010080F03000000C0E06060606071
:104DC00060E06000000003000000E0180700000041
:104DD00000000000001F1F00000000000080C060F5
:104DE0002020202060C080000087EF2C1818303071
:104DF00068CF830000070F0810101010180F07006D
:104E00000000C0C020202020C0800000001F3F60A4
:104E10004040402010FFFE0000000C1C1010100845
:104E20000F03000000000000000000000000000070
:104E300000000000000E0E0E000000000000000048
:104E4000001C1C1C0000000000000000000000000E
:104E50000000000000000000000C0C00000000003A
:104E600000000000005838000000000000000000B2
:104E70000000008040201000000010284482010043
:104E80000000000000000000000001020408100003
:104E90000000000000000000000000000084848486
:104EA0008484848484848400000000000000000066
:104EB0000000000000001020408000000000000002
:104EC00000000000000001824428100000001008CB
:104ED000040201000000000000C02020101010108B
:104EE00030E0C0000003030000F010080C070300CE
:104EF000000000001C1C1C0000000000000000C09E
:104F0000406020202040C00000FCFF01F00E03C1E3
:104F1000FE03807F0001070E081111101109040221
:104F20000000000080E0E000000000000000807C45
:104F30004340477FF880000010181F100000000059
:104F4000131F1C1020E0E02020202060C080000003
:104F500000FFFF10101010182FE78000101F1F1007
:104F600010101010180F0700000080C040202020F3
:104F70002060E00000FCFF010000000000000100D4
:104F80000001070E181010100804030020E0E020B4
:104F900020202040C080000000FFFF000000000033
:104FA00001FFFE00101F1F10101018080E0701004F
:104FB00020E0E020202020202060800000FFFF1063
:104FC0001010107C00000000101F1F101010101097
:104FD0001018060020E0E0202020202060608000E3
:104FE00000FFFF101010107C00000100101F1F10A8
:104FF0000000000000000000000080C060202020B1
:1050000040E0000000FCFF0100004040C0C1404003
:105010000001070E181010100F0F000020E0E02014
:105020000000000020E0E02000FFFF101010101032
:1050300010FFFF00101F1F1000000000101F1F10A6
:105040000000202020E0E0202020000000000000E0
:1050500000FFFF000000000000001010101F1F10D4
:105060001010000000000000202020E0E0202020A0
:1050700000000000000000FFFF0000000060E08072
:105080008080C07F3F00000020E0E020000020A0E2
:105090006020200000FFFF30187CE3C0000000000B
:1050A000101F1F10000001131F1C181020E0E0202B
:1050B000000000000000000000FFFF0000000000F2
:1050C00000000000101F1F10101010101018060014
:1050D00020E0E0E000000000E0E0E02000FF013F11
:1050E000FEC0E01E01FFFF00101F1000031F0300A1
:1050F000101F1F1020E0E0C0000000000020E02092
:1051000000FF0003071C78E08000FF00101F100064
:1051100000000000030F1F00000080C0602020601E
:10512000C080000000FEFF010000000000FFFE0044
:105130000001070E181010180C07010020E0E020F5
:105140002020202060C0800000FFFF2020202020A1
:10515000301F0F00101F1F10000000000000000093
:10516000000080C060202060C080000000FEFF01C1
:105170000000000000FFFE000001070E1111133CAB
:105180007C67210020E0E0202020202060C08000FB
:1051900000FFFF101030F0D0080F0700101F1F1085
:1051A000000000030F1C10100080C0602020202091
:1051B0004040E00000070F0C1818303060E081001C
:1051C000001F0C0810101010180F0700806020201E
:1051D00020E0E020202060800100000000FFFF00B0
:1051E0000000000100000000101F1F100000000060
:1051F00020E0E020000000000020E02000FFFF0091
:10520000000000000000FF0000070F181010101031
:10521000100807002060E0E02000000020E060208F
:105220000000077FF88000807C0300000000000081
:10523000071F1C070000000020E0E02000E0E02045
:105240000020E0200007FFF8E01FFFFCE01F000047
:105250000000031F0300011F03000000002060E0A6
:10526000A0000020E0602000000000038F7CF8C652
:10527000010000000010181E130001171F18100075
:105280002060E0E02000000020E060200000010736
:105290003EF8E0180700000000000010101F1F106B
:1052A0001000000000806020202020A0E0E020000E
:1052B00000000000C0F03E0F0300000000101C1FA3
:1052C00017101010101806000000000000FC040465
:1052D000040404000000000000FF000000000000C3
:1052E00000000000007F404040404000000010E00F
:1052F000000000000000000000000000031C6080AF
:105300000000000000000000000000030C7080009E
:1053100000000404040404FC00000000000000007D
:10532000000000FF00000000000040404040407FBF
:105330000000000000000010080C040C0810000021
:10534000000000000000000000000000000000005D
:10535000000000000000000000000000000000004D
:10536000000000000000000000000000000000003D
:105370008080808080808080808080800000000429
:105380000408080000000000000000000000000009
:10539000000000000000000000000000000000000D
:1053A000000000000000000000000000000098D88D
:1053B00044642424FCF80000000F1F18101010088B
:1053C0001F1F10180020E0F0000000000000000087
:1053D0000000FFFF180804040CF8F00000001F0F85
:1053E00018101010180F030000000000000000004B
:1053F0000000000000E0F8180404043C380000003D
:1054000000030F0C10101010080600000000000030
:1054100000000020E0F0000000E0F81C0404040894
:10542000FFFF000000030F18101010081F0F0800E6
:105430000000000000000000000000000000E0F894
:10544000484444444C7870000000030F0C181010BE
:10545000100804000000000080C0602020E0C000B0
:1054600000040404FFFF0404040400000000101002
:105470001F1F1010100000000000000000000000BE
:1054800000000000000070F88C04048CF874040C18
:10549000007076CF8D8D8D89C87870000020E0F087
:1054A00000000000000000000000FFFF08040404EA
:1054B000FCF8000000101F1F100000101F1F10003C
:1054C0000000000000606000000000000000040414
:1054D00004FCFC000000000000001010101F1F1052
:1054E00010100000000000000000006060000000DC
:1054F00000000000040404FCFC0000000000C0C028
:105500008080C07F3F0000000020E0F0000000002D
:10551000000000000000FFFF80C0F41C0404000035
:1055200000101F1F1100031F1C101000000020207E
:1055300020E0F000000000000000000000FFFF007D
:105540000000000000001010101F1F1010100000BD
:1055500000000000000000000000000004FCFC0847
:1055600004FCFC0804FCFC00101F1F10001F1F108F
:10557000001F1F10000000000000000000000000DD
:105580000004FCFC08080404FCF8000000101F1FC5
:10559000100000101F1F100000000000000000009D
:1055A0000000000000E0F0180C04040C18F0E0000B
:1055B00000030F0C101010100C0F0300000000006F
:1055C00000000000000000000004FCFC08040404CB
:1055D0000CF8F0000080FFFF889010101C0F0300F3
:1055E00000000000000000000000000000E0F81CC7
:1055F00004040408F8FC000000030F181010908841
:10560000FFFF80000000000000000000000000001C
:10561000040404FCFC100804040C0C001010101FFF
:105620001F1010100000000000000000000000002B
:105630000000000000003078CCC48484840C1C007E
:1056400000001E1810101011190F060000000000B5
:1056500000C000000000000000040404FFFF040478
:1056600004000000000000000F1F1010100C0000CC
:105670000000000000000000000000000004FCFE2C
:1056800000000004FCFE000000000F1F18101008AE
:105690001F0F0800000000000000000000000000D4
:1056A00000040C3CFCC40000C43C0C0400000000DE
:1056B000010F1E0E010000000000000000000000AD
:1056C00000000000043CFCC400E47CFC84807C04FA
:1056D0000000071F070000071F0700000000000070
:1056E00000000000000000000004041C7CE4C03442
:1056F0001C0404000010101C1601131F1C181000BD
:1057000000000000000000000000000000040C3C4D
:10571000FCC400C43C0404000000C080C1370E017A
:105720000000000000000000000000000000000079
:1057300000001C0404C4F47C1C0400000000101CC5
:105740001F17111010180E0000000000000000F8D4
:105750000C04000000000000001028EF0000000012
:10576000000000000000003F60400000000000005A
:105770000000FF0000000000000000000000FF002B
:1057800000000000000000000000FF00000000001A
:105790000000040CF8000000000000000000000001
:1057A000EF28100000000000000040603F000000F3
:1057B0000000000000180602020408102020300833
:1057C00000000000000000000000000000000000D9
:1057D00000000000000000000000F010101010FF9A
:1057E00010101010F000000000000F04040404FF6B
:1057F000040404040F0000004040405F55555575F7
:105800005555555F404040000040200F09498979B7
:105810000909090F2040000000FE02424ACA4A4A14
:10582000CA4A4A4202FE000000FF40504C4340403A
:105830004F50505C40FF00000000F888888888FFC7
:1058400088888888F800000000001F080808087F82
:10585000888888889F80F00080828282828282E2AB
:10586000A2928A8682808000000000000040807F33
:105870000000000000000000101010FF10900888C9
:105880008888FF88888808000444827F01808040DF
:10589000432C1028468180000010101010D030FFDB
:1058A00030D0121C1010000010080402010000FF8C
:1058B000000001020408100004040484E43C2724CE
:1058C000242424E40404040004020100FF0909095B
:1058D0000949897F0000000000FE225A8600FE92DE
:1058E00092929292FE00000000FF04080700FF4021
:1058F00020030C1422414000008040201806800044
:105900000718204080000000010020702826212078
:1059100020243860000101000010129292929292AD
:1059200092121202FE0000000000003F1010101042
:105930003F0040807F000000000000C08080808029
:10594000808080FC84808080808080C0C0000000D7
:10595000000000FF7F404040404040FF404040404A
:10596000404040FF7F0000000000000000000000F9
:105970000000007F70000000000000000000000038
:10598000000000000000000000000000000000FC1B
:10599000F80000000000000000000000000000000F
:1059A00000000000FFFE020202020202020202FFE9
:1059B000FF020202020202020202FF0300000000D4
:1059C000000000001F1F040404040404040404FF76
:1059D000FF0404040404040404041F000000000085
:1059E0000000000000000000000000000000007F38
:1059F0003F00000000000000000000000000000068
:105A00000000000000000000000000000000000096
:105A100000000000000000000000000000F8F8F0A6
:105A2000F0702000000000000000000000000000F6
:105A30000000000000000000000000000000000066
:105A400000000000000000008000000000000000D6
:105A500000000000000000000000000000FFFFFF49
:105A6000FF00000000000000000000000000000037
:105A70000000000080800000000000000000000026
:105A8000000000000000000000FFFFFE0606060602
:105A900006060606060606060606060606FFFFFFBB
:105AA000FF0606060606060606060606060606069D
:105AB000060606FFFFFFFF070200000000000000CF
:105AC000000000000000000000FFFFFF00000000D9
:105AD00000000000000000000000000000FFFFFFC9
